{
  "contractName": "NftStaking",
  "abi": [
    {
      "inputs": [
        {
          "internalType": "address",
          "name": "_nftFactory",
          "type": "address"
        },
        {
          "internalType": "address",
          "name": "_nft",
          "type": "address"
        }
      ],
      "stateMutability": "nonpayable",
      "type": "constructor"
    },
    {
      "anonymous": false,
      "inputs": [
        {
          "indexed": false,
          "internalType": "uint256",
          "name": "sessionId",
          "type": "uint256"
        },
        {
          "indexed": false,
          "internalType": "uint8",
          "name": "completedNum",
          "type": "uint8"
        },
        {
          "indexed": false,
          "internalType": "uint256",
          "name": "imgId",
          "type": "uint256"
        },
        {
          "indexed": false,
          "internalType": "uint256",
          "name": "generation",
          "type": "uint256"
        },
        {
          "indexed": false,
          "internalType": "uint8",
          "name": "quality",
          "type": "uint8"
        }
      ],
      "name": "AddSignInReward",
      "type": "event"
    },
    {
      "anonymous": false,
      "inputs": [
        {
          "indexed": true,
          "internalType": "address",
          "name": "owner",
          "type": "address"
        },
        {
          "indexed": false,
          "internalType": "uint256",
          "name": "sessionId",
          "type": "uint256"
        },
        {
          "indexed": false,
          "internalType": "uint256",
          "name": "baseAmount",
          "type": "uint256"
        },
        {
          "indexed": false,
          "internalType": "uint256",
          "name": "amountWithBonus",
          "type": "uint256"
        },
        {
          "indexed": false,
          "internalType": "uint256",
          "name": "percents",
          "type": "uint256"
        }
      ],
      "name": "BonusClaimed",
      "type": "event"
    },
    {
      "anonymous": false,
      "inputs": [
        {
          "indexed": true,
          "internalType": "address",
          "name": "owner",
          "type": "address"
        },
        {
          "indexed": false,
          "internalType": "uint256",
          "name": "sessionId",
          "type": "uint256"
        },
        {
          "indexed": false,
          "internalType": "uint256",
          "name": "amount",
          "type": "uint256"
        },
        {
          "indexed": false,
          "internalType": "uint256",
          "name": "nftId",
          "type": "uint256"
        }
      ],
      "name": "Claimed",
      "type": "event"
    },
    {
      "anonymous": false,
      "inputs": [
        {
          "indexed": false,
          "internalType": "address",
          "name": "msgsender",
          "type": "address"
        },
        {
          "indexed": false,
          "internalType": "uint256",
          "name": "_sessionId",
          "type": "uint256"
        },
        {
          "indexed": false,
          "internalType": "uint256",
          "name": "nfts0",
          "type": "uint256"
        },
        {
          "indexed": false,
          "internalType": "uint256",
          "name": "nfts1",
          "type": "uint256"
        },
        {
          "indexed": false,
          "internalType": "uint256",
          "name": "nfts2",
          "type": "uint256"
        },
        {
          "indexed": false,
          "internalType": "uint256",
          "name": "Dtime",
          "type": "uint256"
        }
      ],
      "name": "Deposited",
      "type": "event"
    },
    {
      "anonymous": false,
      "inputs": [
        {
          "indexed": false,
          "internalType": "address",
          "name": "owner",
          "type": "address"
        },
        {
          "indexed": false,
          "internalType": "uint256",
          "name": "sessionId",
          "type": "uint256"
        },
        {
          "indexed": false,
          "internalType": "uint8",
          "name": "completedNum",
          "type": "uint8"
        },
        {
          "indexed": false,
          "internalType": "uint256",
          "name": "NftId",
          "type": "uint256"
        },
        {
          "indexed": false,
          "internalType": "uint256",
          "name": "generation",
          "type": "uint256"
        },
        {
          "indexed": false,
          "internalType": "uint8",
          "name": "quality",
          "type": "uint8"
        },
        {
          "indexed": false,
          "internalType": "uint256",
          "name": "imgId",
          "type": "uint256"
        }
      ],
      "name": "GetSignInReward",
      "type": "event"
    },
    {
      "anonymous": false,
      "inputs": [
        {
          "indexed": false,
          "internalType": "address",
          "name": "factory",
          "type": "address"
        }
      ],
      "name": "NftFactorySet",
      "type": "event"
    },
    {
      "anonymous": false,
      "inputs": [
        {
          "indexed": true,
          "internalType": "address",
          "name": "previousOwner",
          "type": "address"
        },
        {
          "indexed": true,
          "internalType": "address",
          "name": "newOwner",
          "type": "address"
        }
      ],
      "name": "OwnershipTransferred",
      "type": "event"
    },
    {
      "anonymous": false,
      "inputs": [
        {
          "indexed": false,
          "internalType": "uint256",
          "name": "sessionIdd",
          "type": "uint256"
        },
        {
          "indexed": false,
          "internalType": "uint256",
          "name": "reward",
          "type": "uint256"
        },
        {
          "indexed": false,
          "internalType": "uint256",
          "name": "startTime",
          "type": "uint256"
        },
        {
          "indexed": false,
          "internalType": "uint256",
          "name": "endTime",
          "type": "uint256"
        }
      ],
      "name": "SessionStarted",
      "type": "event"
    },
    {
      "inputs": [
        {
          "internalType": "uint256",
          "name": "",
          "type": "uint256"
        },
        {
          "internalType": "address",
          "name": "",
          "type": "address"
        },
        {
          "internalType": "uint256",
          "name": "",
          "type": "uint256"
        }
      ],
      "name": "balances",
      "outputs": [
        {
          "internalType": "uint256",
          "name": "claimedTime",
          "type": "uint256"
        },
        {
          "internalType": "uint256",
          "name": "nftId",
          "type": "uint256"
        },
        {
          "internalType": "uint256",
          "name": "sp",
          "type": "uint256"
        },
        {
          "internalType": "uint256",
          "name": "claimedAmount",
          "type": "uint256"
        }
      ],
      "stateMutability": "view",
      "type": "function"
    },
    {
      "inputs": [
        {
          "internalType": "uint256",
          "name": "",
          "type": "uint256"
        },
        {
          "internalType": "address",
          "name": "",
          "type": "address"
        }
      ],
      "name": "depositTimes",
      "outputs": [
        {
          "internalType": "uint256",
          "name": "",
          "type": "uint256"
        }
      ],
      "stateMutability": "view",
      "type": "function"
    },
    {
      "inputs": [
        {
          "internalType": "uint256",
          "name": "",
          "type": "uint256"
        },
        {
          "internalType": "address",
          "name": "",
          "type": "address"
        }
      ],
      "name": "earning",
      "outputs": [
        {
          "internalType": "uint256",
          "name": "",
          "type": "uint256"
        }
      ],
      "stateMutability": "view",
      "type": "function"
    },
    {
      "inputs": [],
      "name": "lastSessionId",
      "outputs": [
        {
          "internalType": "uint256",
          "name": "",
          "type": "uint256"
        }
      ],
      "stateMutability": "view",
      "type": "function"
    },
    {
      "inputs": [],
      "name": "nonce",
      "outputs": [
        {
          "internalType": "uint256",
          "name": "",
          "type": "uint256"
        }
      ],
      "stateMutability": "view",
      "type": "function"
    },
    {
      "inputs": [],
      "name": "owner",
      "outputs": [
        {
          "internalType": "address",
          "name": "",
          "type": "address"
        }
      ],
      "stateMutability": "view",
      "type": "function"
    },
    {
      "inputs": [
        {
          "internalType": "uint256",
          "name": "",
          "type": "uint256"
        },
        {
          "internalType": "address",
          "name": "",
          "type": "address"
        },
        {
          "internalType": "uint8",
          "name": "",
          "type": "uint8"
        }
      ],
      "name": "received",
      "outputs": [
        {
          "internalType": "bool",
          "name": "",
          "type": "bool"
        }
      ],
      "stateMutability": "view",
      "type": "function"
    },
    {
      "inputs": [],
      "name": "renounceOwnership",
      "outputs": [],
      "stateMutability": "nonpayable",
      "type": "function"
    },
    {
      "inputs": [],
      "name": "rewardToken",
      "outputs": [
        {
          "internalType": "contract IERC20",
          "name": "",
          "type": "address"
        }
      ],
      "stateMutability": "view",
      "type": "function"
    },
    {
      "inputs": [
        {
          "internalType": "uint256",
          "name": "",
          "type": "uint256"
        }
      ],
      "name": "sessions",
      "outputs": [
        {
          "internalType": "uint256",
          "name": "totalReward",
          "type": "uint256"
        },
        {
          "internalType": "uint256",
          "name": "period",
          "type": "uint256"
        },
        {
          "internalType": "uint256",
          "name": "startTime",
          "type": "uint256"
        },
        {
          "internalType": "uint256",
          "name": "claimed",
          "type": "uint256"
        },
        {
          "internalType": "uint256",
          "name": "totalSp",
          "type": "uint256"
        },
        {
          "internalType": "uint256",
          "name": "rewardUnit",
          "type": "uint256"
        },
        {
          "internalType": "uint256",
          "name": "interestPerPoint",
          "type": "uint256"
        },
        {
          "internalType": "uint256",
          "name": "claimedPerPoint",
          "type": "uint256"
        },
        {
          "internalType": "uint256",
          "name": "lastInterestUpdate",
          "type": "uint256"
        },
        {
          "internalType": "bool",
          "name": "burn",
          "type": "bool"
        },
        {
          "internalType": "bool",
          "name": "specify",
          "type": "bool"
        },
        {
          "internalType": "uint8",
          "name": "signinRewardNum",
          "type": "uint8"
        }
      ],
      "stateMutability": "view",
      "type": "function"
    },
    {
      "inputs": [
        {
          "internalType": "uint256",
          "name": "",
          "type": "uint256"
        },
        {
          "internalType": "uint8",
          "name": "",
          "type": "uint8"
        }
      ],
      "name": "signinRewards",
      "outputs": [
        {
          "internalType": "uint256",
          "name": "imgId",
          "type": "uint256"
        },
        {
          "internalType": "uint256",
          "name": "generation",
          "type": "uint256"
        },
        {
          "internalType": "uint8",
          "name": "quality",
          "type": "uint8"
        }
      ],
      "stateMutability": "view",
      "type": "function"
    },
    {
      "inputs": [
        {
          "internalType": "uint256",
          "name": "",
          "type": "uint256"
        },
        {
          "internalType": "address",
          "name": "",
          "type": "address"
        }
      ],
      "name": "slots",
      "outputs": [
        {
          "internalType": "uint256",
          "name": "",
          "type": "uint256"
        }
      ],
      "stateMutability": "view",
      "type": "function"
    },
    {
      "inputs": [
        {
          "internalType": "address",
          "name": "newOwner",
          "type": "address"
        }
      ],
      "name": "transferOwnership",
      "outputs": [],
      "stateMutability": "nonpayable",
      "type": "function"
    },
    {
      "inputs": [],
      "name": "verifier",
      "outputs": [
        {
          "internalType": "address",
          "name": "",
          "type": "address"
        }
      ],
      "stateMutability": "view",
      "type": "function"
    },
    {
      "inputs": [
        {
          "internalType": "address",
          "name": "operator",
          "type": "address"
        },
        {
          "internalType": "address",
          "name": "from",
          "type": "address"
        },
        {
          "internalType": "uint256",
          "name": "tokenId",
          "type": "uint256"
        },
        {
          "internalType": "bytes",
          "name": "data",
          "type": "bytes"
        }
      ],
      "name": "onERC721Received",
      "outputs": [
        {
          "internalType": "bytes4",
          "name": "",
          "type": "bytes4"
        }
      ],
      "stateMutability": "nonpayable",
      "type": "function"
    },
    {
      "inputs": [
        {
          "internalType": "address",
          "name": "_rewardToken",
          "type": "address"
        },
        {
          "internalType": "uint256",
          "name": "_totalReward",
          "type": "uint256"
        },
        {
          "internalType": "uint256",
          "name": "_period",
          "type": "uint256"
        },
        {
          "internalType": "uint256",
          "name": "_startTime",
          "type": "uint256"
        },
        {
          "internalType": "address",
          "name": "_verifier",
          "type": "address"
        },
        {
          "internalType": "bool",
          "name": "_burn",
          "type": "bool"
        },
        {
          "internalType": "bool",
          "name": "_specify",
          "type": "bool"
        }
      ],
      "name": "startSession",
      "outputs": [],
      "stateMutability": "nonpayable",
      "type": "function"
    },
    {
      "inputs": [
        {
          "internalType": "address",
          "name": "_address",
          "type": "address"
        }
      ],
      "name": "setNftFactory",
      "outputs": [],
      "stateMutability": "nonpayable",
      "type": "function"
    },
    {
      "inputs": [
        {
          "internalType": "uint256",
          "name": "_sessionId",
          "type": "uint256"
        },
        {
          "internalType": "address",
          "name": "_address",
          "type": "address"
        }
      ],
      "name": "payDebt",
      "outputs": [],
      "stateMutability": "nonpayable",
      "type": "function"
    },
    {
      "inputs": [
        {
          "internalType": "uint256",
          "name": "_sessionId",
          "type": "uint256"
        },
        {
          "internalType": "bytes",
          "name": "data",
          "type": "bytes"
        },
        {
          "internalType": "uint8",
          "name": "_v",
          "type": "uint8"
        },
        {
          "internalType": "bytes32",
          "name": "_r",
          "type": "bytes32"
        },
        {
          "internalType": "bytes32",
          "name": "_s",
          "type": "bytes32"
        }
      ],
      "name": "deposit",
      "outputs": [],
      "stateMutability": "nonpayable",
      "type": "function"
    },
    {
      "inputs": [
        {
          "internalType": "uint256",
          "name": "_sessionId",
          "type": "uint256"
        },
        {
          "internalType": "uint256",
          "name": "_index",
          "type": "uint256"
        }
      ],
      "name": "claim",
      "outputs": [],
      "stateMutability": "nonpayable",
      "type": "function"
    },
    {
      "inputs": [
        {
          "internalType": "uint256",
          "name": "_sessionId",
          "type": "uint256"
        },
        {
          "internalType": "uint256",
          "name": "_bonusPercent",
          "type": "uint256"
        },
        {
          "internalType": "uint8",
          "name": "_v",
          "type": "uint8"
        },
        {
          "internalType": "bytes32",
          "name": "_r",
          "type": "bytes32"
        },
        {
          "internalType": "bytes32",
          "name": "_s",
          "type": "bytes32"
        }
      ],
      "name": "claimAll",
      "outputs": [],
      "stateMutability": "nonpayable",
      "type": "function"
    },
    {
      "inputs": [
        {
          "internalType": "uint256",
          "name": "_sessionId",
          "type": "uint256"
        }
      ],
      "name": "claimAll",
      "outputs": [],
      "stateMutability": "nonpayable",
      "type": "function"
    },
    {
      "inputs": [
        {
          "internalType": "uint256",
          "name": "_sessionId",
          "type": "uint256"
        },
        {
          "internalType": "address",
          "name": "_address",
          "type": "address"
        },
        {
          "internalType": "uint256",
          "name": "_index",
          "type": "uint256"
        }
      ],
      "name": "claimable",
      "outputs": [
        {
          "internalType": "uint256",
          "name": "",
          "type": "uint256"
        }
      ],
      "stateMutability": "view",
      "type": "function"
    },
    {
      "inputs": [
        {
          "internalType": "uint256",
          "name": "_sessionId",
          "type": "uint256"
        }
      ],
      "name": "stakedBalance",
      "outputs": [
        {
          "internalType": "uint256",
          "name": "",
          "type": "uint256"
        }
      ],
      "stateMutability": "view",
      "type": "function"
    },
    {
      "inputs": [
        {
          "internalType": "uint256",
          "name": "_sessionId",
          "type": "uint256"
        },
        {
          "internalType": "bytes",
          "name": "data",
          "type": "bytes"
        }
      ],
      "name": "addSignInReward",
      "outputs": [],
      "stateMutability": "nonpayable",
      "type": "function"
    },
    {
      "inputs": [
        {
          "internalType": "uint256",
          "name": "_sessionId",
          "type": "uint256"
        },
        {
          "internalType": "uint8",
          "name": "_tagNum",
          "type": "uint8"
        },
        {
          "internalType": "uint8",
          "name": "v",
          "type": "uint8"
        },
        {
          "internalType": "bytes32",
          "name": "r",
          "type": "bytes32"
        },
        {
          "internalType": "bytes32",
          "name": "s",
          "type": "bytes32"
        }
      ],
      "name": "getSignInReward",
      "outputs": [],
      "stateMutability": "nonpayable",
      "type": "function"
    },
    {
      "inputs": [
        {
          "internalType": "bytes",
          "name": "data",
          "type": "bytes"
        }
      ],
      "name": "isValidData",
      "outputs": [
        {
          "internalType": "bool",
          "name": "",
          "type": "bool"
        }
      ],
      "stateMutability": "view",
      "type": "function"
    }
  ],
  "bytecode": "0x608060405260006001553480156200001657600080fd5b5060405162005de938038062005de9833981810160405260408110156200003c57600080fd5b810190808051906020019092919080519060200190929190505050600062000069620002d460201b60201c565b9050806000806101000a81548173ffffffffffffffffffffffffffffffffffffffff021916908373ffffffffffffffffffffffffffffffffffffffff1602179055508073ffffffffffffffffffffffffffffffffffffffff16600073ffffffffffffffffffffffffffffffffffffffff167f8be0079c531659141344cd1fd0a4f28419497f9722a3daafe3b4186f6b6457e060405160405180910390a350600073ffffffffffffffffffffffffffffffffffffffff168273ffffffffffffffffffffffffffffffffffffffff1614156200018f576040517f08c379a000000000000000000000000000000000000000000000000000000000815260040180806020018281038252602181526020018062005dc86021913960400191505060405180910390fd5b600073ffffffffffffffffffffffffffffffffffffffff168173ffffffffffffffffffffffffffffffffffffffff16141562000233576040517f08c379a00000000000000000000000000000000000000000000000000000000081526004018080602001828103825260198152602001807f4e66742063616e2774206265207a65726f20616464726573730000000000000081525060200191505060405180910390fd5b6200024a6004620002dc60201b620045b11760201c565b81600260006101000a81548173ffffffffffffffffffffffffffffffffffffffff021916908373ffffffffffffffffffffffffffffffffffffffff16021790555080600360006101000a81548173ffffffffffffffffffffffffffffffffffffffff021916908373ffffffffffffffffffffffffffffffffffffffff1602179055505050620002f2565b600033905090565b6001816000016000828254019250508190555050565b615ac680620003026000396000f3fe608060405234801561001057600080fd5b50600436106101a95760003560e01c806386ba8997116100f9578063d389838b11610097578063f2fde38b11610071578063f2fde38b14610aa6578063f62b1f4414610aea578063f7c618c114610b46578063fd26d8c014610b90576101a9565b8063d389838b146109b4578063d9dc8f1d14610a16578063f256cad514610a64576101a9565b8063affed0e0116100d3578063affed0e014610890578063b886cdf5146108ae578063c34902631461091a578063c599261814610952576101a9565b806386ba8997146107605780638da5cb5b146107e35780638e67b1eb1461082d576101a9565b80634c9c326411610166578063715018a611610140578063715018a61461056557806375f52b671461056f57806383c4b7a314610642578063854702de146106df576101a9565b80634c9c3264146104445780634f694aab146104de5780636930fd2a14610537576101a9565b80630dac9962146101ae578063150b7a02146101f25780631ed63c5d14610307578063296361731461037a5780632b7ac3f3146103dc578063421653f714610426575b600080fd5b6101f0600480360360208110156101c457600080fd5b81019080803573ffffffffffffffffffffffffffffffffffffffff169060200190929190505050610c34565b005b6102b36004803603608081101561020857600080fd5b81019080803573ffffffffffffffffffffffffffffffffffffffff169060200190929190803573ffffffffffffffffffffffffffffffffffffffff169060200190929190803590602001909291908035906020019064010000000081111561026f57600080fd5b82018360208201111561028157600080fd5b803590602001918460018302840111640100000000831117156102a357600080fd5b9091929391929390505050610e2a565b60405180827bffffffffffffffffffffffffffffffffffffffffffffffffffffffff19167bffffffffffffffffffffffffffffffffffffffffffffffffffffffff1916815260200191505060405180910390f35b6103606004803603606081101561031d57600080fd5b8101908080359060200190929190803573ffffffffffffffffffffffffffffffffffffffff169060200190929190803560ff169060200190929190505050610e50565b604051808215151515815260200191505060405180910390f35b6103c66004803603604081101561039057600080fd5b8101908080359060200190929190803573ffffffffffffffffffffffffffffffffffffffff169060200190929190505050610e8c565b6040518082815260200191505060405180910390f35b6103e4610eb1565b604051808273ffffffffffffffffffffffffffffffffffffffff1673ffffffffffffffffffffffffffffffffffffffff16815260200191505060405180910390f35b61042e610ed7565b6040518082815260200191505060405180910390f35b6104dc600480360360e081101561045a57600080fd5b81019080803573ffffffffffffffffffffffffffffffffffffffff169060200190929190803590602001909291908035906020019092919080359060200190929190803573ffffffffffffffffffffffffffffffffffffffff169060200190929190803515159060200190929190803515159060200190929190505050610edd565b005b610535600480360360a08110156104f457600080fd5b810190808035906020019092919080359060200190929190803560ff169060200190929190803590602001909291908035906020019092919050505061166d565b005b6105636004803603602081101561054d57600080fd5b8101908080359060200190929190505050611896565b005b61056d611e6d565b005b6106286004803603602081101561058557600080fd5b81019080803590602001906401000000008111156105a257600080fd5b8201836020820111156105b457600080fd5b803590602001918460018302840111640100000000831117156105d657600080fd5b91908080601f016020809104026020016040519081016040528093929190818152602001838380828437600081840152601f19601f820116905080830192505050505050509192919290505050611ff5565b604051808215151515815260200191505060405180910390f35b61066e6004803603602081101561065857600080fd5b8101908080359060200190929190505050612074565b604051808d81526020018c81526020018b81526020018a815260200189815260200188815260200187815260200186815260200185815260200184151515158152602001831515151581526020018260ff1660ff1681526020019c5050505050505050505050505060405180910390f35b610735600480360360608110156106f557600080fd5b8101908080359060200190929190803573ffffffffffffffffffffffffffffffffffffffff169060200190929190803590602001909291905050506120fb565b6040518085815260200184815260200183815260200182815260200194505050505060405180910390f35b6107e16004803603604081101561077657600080fd5b81019080803590602001909291908035906020019064010000000081111561079d57600080fd5b8201836020820111156107af57600080fd5b803590602001918460018302840111640100000000831117156107d157600080fd5b9091929391929390505050612148565b005b6107eb612540565b604051808273ffffffffffffffffffffffffffffffffffffffff1673ffffffffffffffffffffffffffffffffffffffff16815260200191505060405180910390f35b6108666004803603604081101561084357600080fd5b8101908080359060200190929190803560ff169060200190929190505050612569565b604051808481526020018381526020018260ff1660ff168152602001935050505060405180910390f35b6108986125ad565b6040518082815260200191505060405180910390f35b610904600480360360608110156108c457600080fd5b8101908080359060200190929190803573ffffffffffffffffffffffffffffffffffffffff169060200190929190803590602001909291905050506125b3565b6040518082815260200191505060405180910390f35b6109506004803603604081101561093057600080fd5b8101908080359060200190929190803590602001909291905050506125c9565b005b61099e6004803603604081101561096857600080fd5b8101908080359060200190929190803573ffffffffffffffffffffffffffffffffffffffff169060200190929190505050612c23565b6040518082815260200191505060405180910390f35b610a00600480360360408110156109ca57600080fd5b8101908080359060200190929190803573ffffffffffffffffffffffffffffffffffffffff169060200190929190505050612c48565b6040518082815260200191505060405180910390f35b610a6260048036036040811015610a2c57600080fd5b8101908080359060200190929190803573ffffffffffffffffffffffffffffffffffffffff169060200190929190505050612c6d565b005b610a9060048036036020811015610a7a57600080fd5b81019080803590602001909291905050506130fb565b6040518082815260200191505060405180910390f35b610ae860048036036020811015610abc57600080fd5b81019080803573ffffffffffffffffffffffffffffffffffffffff16906020019092919050505061311b565b005b610b44600480360360a0811015610b0057600080fd5b8101908080359060200190929190803560ff169060200190929190803560ff1690602001909291908035906020019092919080359060200190929190505050613328565b005b610b4e613929565b604051808273ffffffffffffffffffffffffffffffffffffffff1673ffffffffffffffffffffffffffffffffffffffff16815260200191505060405180910390f35b610c32600480360360a0811015610ba657600080fd5b810190808035906020019092919080359060200190640100000000811115610bcd57600080fd5b820183602082011115610bdf57600080fd5b80359060200191846001830284011164010000000083111715610c0157600080fd5b9091929391929390803560ff169060200190929190803590602001909291908035906020019092919050505061394f565b005b610c3c614442565b73ffffffffffffffffffffffffffffffffffffffff166000809054906101000a900473ffffffffffffffffffffffffffffffffffffffff1673ffffffffffffffffffffffffffffffffffffffff1614610cfd576040517f08c379a00000000000000000000000000000000000000000000000000000000081526004018080602001828103825260208152602001807f4f776e61626c653a2063616c6c6572206973206e6f7420746865206f776e657281525060200191505060405180910390fd5b600073ffffffffffffffffffffffffffffffffffffffff168173ffffffffffffffffffffffffffffffffffffffff161415610d83576040517f08c379a0000000000000000000000000000000000000000000000000000000008152600401808060200182810382526021815260200180615a0b6021913960400191505060405180910390fd5b80600260006101000a81548173ffffffffffffffffffffffffffffffffffffffff021916908373ffffffffffffffffffffffffffffffffffffffff1602179055507f574ba4a25d34845738232250b1b5e6cca207a9a70af8726fec13dce60580b6a581604051808273ffffffffffffffffffffffffffffffffffffffff1673ffffffffffffffffffffffffffffffffffffffff16815260200191505060405180910390a150565b600060405180806156fd602f9139602f0190506040518091039020905095945050505050565b600f602052826000526040600020602052816000526040600020602052806000526040600020600092509250509054906101000a900460ff1681565b600e602052816000526040600020602052806000526040600020600091509150505481565b600560009054906101000a900473ffffffffffffffffffffffffffffffffffffffff1681565b60095481565b610ee5614442565b73ffffffffffffffffffffffffffffffffffffffff166000809054906101000a900473ffffffffffffffffffffffffffffffffffffffff1673ffffffffffffffffffffffffffffffffffffffff1614610fa6576040517f08c379a00000000000000000000000000000000000000000000000000000000081526004018080602001828103825260208152602001807f4f776e61626c653a2063616c6c6572206973206e6f7420746865206f776e657281525060200191505060405180910390fd5b600073ffffffffffffffffffffffffffffffffffffffff168773ffffffffffffffffffffffffffffffffffffffff161415611049576040517f08c379a000000000000000000000000000000000000000000000000000000000815260040180806020018281038252601b8152602001807f546f6b656e2063616e2774206265207a65726f2061646472657373000000000081525060200191505060405180910390fd5b4284116110a1576040517f08c379a000000000000000000000000000000000000000000000000000000000815260040180806020018281038252603581526020018061597c6035913960400191505060405180910390fd5b600085116110fa576040517f08c379a000000000000000000000000000000000000000000000000000000000815260040180806020018281038252603b815260200180615752603b913960400191505060405180910390fd5b60008611611153576040517f08c379a00000000000000000000000000000000000000000000000000000000081526004018080602001828103825260388152602001806157e16038913960400191505060405180910390fd5b600073ffffffffffffffffffffffffffffffffffffffff168373ffffffffffffffffffffffffffffffffffffffff1614156111f6576040517f08c379a000000000000000000000000000000000000000000000000000000000815260040180806020018281038252601e8152602001807f76657269666965722063616e2774206265207a65726f2061646472657373000081525060200191505060405180910390fd5b600060095411156112635761120c60095461444a565b15611262576040517f08c379a0000000000000000000000000000000000000000000000000000000008152600401808060200182810382526034815260200180615a2c6034913960400191505060405180910390fd5b5b600073ffffffffffffffffffffffffffffffffffffffff168773ffffffffffffffffffffffffffffffffffffffff16146113b2576000879050868173ffffffffffffffffffffffffffffffffffffffff166370a08231306040518263ffffffff1660e01b8152600401808273ffffffffffffffffffffffffffffffffffffffff1673ffffffffffffffffffffffffffffffffffffffff16815260200191505060206040518083038186803b15801561131a57600080fd5b505afa15801561132e573d6000803e3d6000fd5b505050506040513d602081101561134457600080fd5b810190808051906020019092919050505010156113ac576040517f08c379a000000000000000000000000000000000000000000000000000000000815260040180806020018281038252602a815260200180615952602a913960400191505060405180910390fd5b5061140c565b8547101561140b576040517f08c379a000000000000000000000000000000000000000000000000000000000815260040180806020018281038252602b8152602001806159b1602b913960400191505060405180910390fd5b5b600061141860046144d3565b905060006114498761143b670de0b6b3a76400008b6144e190919063ffffffff16565b61456790919063ffffffff16565b90506040518061018001604052808981526020018881526020018781526020016000815260200160008152602001828152602001600081526020016000815260200187815260200185151581526020018415158152602001600060ff16815250600a6000848152602001908152602001600020600082015181600001556020820151816001015560408201518160020155606082015181600301556080820151816004015560a0820151816005015560c0820151816006015560e0820151816007015561010082015181600801556101208201518160090160006101000a81548160ff0219169083151502179055506101408201518160090160016101000a81548160ff0219169083151502179055506101608201518160090160026101000a81548160ff021916908360ff16021790555090505061158860046145b1565b88600660006101000a81548173ffffffffffffffffffffffffffffffffffffffff021916908373ffffffffffffffffffffffffffffffffffffffff1602179055508160098190555084600560006101000a81548173ffffffffffffffffffffffffffffffffffffffff021916908373ffffffffffffffffffffffffffffffffffffffff1602179055507f5dc1f72d9d4fb1e826e6f5c291a6eb1942b9825fe2802bb9ec05563c01aad8868289888a8a016040518085815260200184815260200183815260200182815260200194505050505060405180910390a1505050505050505050565b6000600b600087815260200190815260200160002060003373ffffffffffffffffffffffffffffffffffffffff1673ffffffffffffffffffffffffffffffffffffffff1681526020019081526020016000205411611733576040517f08c379a00000000000000000000000000000000000000000000000000000000081526004018080602001828103825260208152602001807f4e6674205374616b696e673a20616c6c20736c6f74732061726520656d70747981525060200191505060405180910390fd5b6003600b600087815260200190815260200160002060003373ffffffffffffffffffffffffffffffffffffffff1673ffffffffffffffffffffffffffffffffffffffff168152602001908152602001600020541480156117935750600084115b80156117bf5750600a600086815260200190815260200160002060090160019054906101000a900460ff165b15611886576117d185858585856145c7565b611826576040517f08c379a00000000000000000000000000000000000000000000000000000000081526004018080602001828103825260278152602001806156836027913960400191505060405180910390fd5b6118308585614971565b611885576040517f08c379a000000000000000000000000000000000000000000000000000000000815260040180806020018281038252602f8152602001806159dc602f913960400191505060405180910390fd5b5b61188f85611896565b5050505050565b6000600b600083815260200190815260200160002060003373ffffffffffffffffffffffffffffffffffffffff1673ffffffffffffffffffffffffffffffffffffffff168152602001908152602001600020541161195c576040517f08c379a00000000000000000000000000000000000000000000000000000000081526004018080602001828103825260208152602001807f4e6674205374616b696e673a20616c6c20736c6f74732061726520656d70747981525060200191505060405180910390fd5b60008090505b6003811015611e13576000600c600084815260200190815260200160002060003373ffffffffffffffffffffffffffffffffffffffff1673ffffffffffffffffffffffffffffffffffffffff16815260200190815260200160002082600381106119c857fe5b600402019050600081600101541115611e075760006119e78484614dde565b9050611a4c81600e600087815260200190815260200160002060003373ffffffffffffffffffffffffffffffffffffffff1673ffffffffffffffffffffffffffffffffffffffff168152602001908152602001600020546151be90919063ffffffff16565b600e600086815260200190815260200160002060003373ffffffffffffffffffffffffffffffffffffffff1673ffffffffffffffffffffffffffffffffffffffff16815260200190815260200160002081905550611aa984615246565b50600082600101549050600083600201549050600a600087815260200190815260200160002060090160009054906101000a900460ff1615611be157600360009054906101000a900473ffffffffffffffffffffffffffffffffffffffff1673ffffffffffffffffffffffffffffffffffffffff166342842e0e3061dead856040518463ffffffff1660e01b8152600401808473ffffffffffffffffffffffffffffffffffffffff1673ffffffffffffffffffffffffffffffffffffffff1681526020018373ffffffffffffffffffffffffffffffffffffffff1673ffffffffffffffffffffffffffffffffffffffff1681526020018281526020019350505050600060405180830381600087803b158015611bc457600080fd5b505af1158015611bd8573d6000803e3d6000fd5b50505050611cd7565b600360009054906101000a900473ffffffffffffffffffffffffffffffffffffffff1673ffffffffffffffffffffffffffffffffffffffff166342842e0e3033856040518463ffffffff1660e01b8152600401808473ffffffffffffffffffffffffffffffffffffffff1673ffffffffffffffffffffffffffffffffffffffff1681526020018373ffffffffffffffffffffffffffffffffffffffff1673ffffffffffffffffffffffffffffffffffffffff1681526020018281526020019350505050600060405180830381600087803b158015611cbe57600080fd5b505af1158015611cd2573d6000803e3d6000fd5b505050505b600c600087815260200190815260200160002060003373ffffffffffffffffffffffffffffffffffffffff1673ffffffffffffffffffffffffffffffffffffffff1681526020019081526020016000208560038110611d3257fe5b600402016000808201600090556001820160009055600282016000905560038201600090555050611d8281600a6000898152602001908152602001600020600401546152e990919063ffffffff16565b600a600088815260200190815260200160002060040181905550611da586615333565b3373ffffffffffffffffffffffffffffffffffffffff167f9cdcf2f7714cca3508c7f0110b04a90a80a3a8dd0e35de99689db74d28c5383e87858560405180848152602001838152602001828152602001935050505060405180910390a25050505b50806001019050611962565b506000600b600083815260200190815260200160002060003373ffffffffffffffffffffffffffffffffffffffff1673ffffffffffffffffffffffffffffffffffffffff1681526020019081526020016000208190555050565b611e75614442565b73ffffffffffffffffffffffffffffffffffffffff166000809054906101000a900473ffffffffffffffffffffffffffffffffffffffff1673ffffffffffffffffffffffffffffffffffffffff1614611f36576040517f08c379a00000000000000000000000000000000000000000000000000000000081526004018080602001828103825260208152602001807f4f776e61626c653a2063616c6c6572206973206e6f7420746865206f776e657281525060200191505060405180910390fd5b600073ffffffffffffffffffffffffffffffffffffffff166000809054906101000a900473ffffffffffffffffffffffffffffffffffffffff1673ffffffffffffffffffffffffffffffffffffffff167f8be0079c531659141344cd1fd0a4f28419497f9722a3daafe3b4186f6b6457e060405160405180910390a360008060006101000a81548173ffffffffffffffffffffffffffffffffffffffff021916908373ffffffffffffffffffffffffffffffffffffffff160217905550565b60008060008084806020019051606081101561201057600080fd5b8101908080519060200190929190805190602001909291908051906020019092919050505080935081945082955050505060008160ff161080612056575060058160ff16115b15612067576000935050505061206f565b600193505050505b919050565b600a6020528060005260406000206000915090508060000154908060010154908060020154908060030154908060040154908060050154908060060154908060070154908060080154908060090160009054906101000a900460ff16908060090160019054906101000a900460ff16908060090160029054906101000a900460ff1690508c565b600c602052826000526040600020602052816000526040600020816003811061212057fe5b6004020160009250925050508060000154908060010154908060020154908060030154905084565b612150614442565b73ffffffffffffffffffffffffffffffffffffffff166000809054906101000a900473ffffffffffffffffffffffffffffffffffffffff1673ffffffffffffffffffffffffffffffffffffffff1614612211576040517f08c379a00000000000000000000000000000000000000000000000000000000081526004018080602001828103825260208152602001807f4f776e61626c653a2063616c6c6572206973206e6f7420746865206f776e657281525060200191505060405180910390fd5b6000600a6000858152602001908152602001600020905061227583838080601f016020809104026020016040519081016040528093929190818152602001838380828437600081840152601f19601f82011690508083019250505050505050611ff5565b6122ca576040517f08c379a00000000000000000000000000000000000000000000000000000000081526004018080602001828103825260288152602001806158e56028913960400191505060405180910390fd5b806001015481600201540142111561234a576040517f08c379a00000000000000000000000000000000000000000000000000000000081526004018080602001828103825260138152602001807f73616c6f6f6e3a2073657373696f6e20656e640000000000000000000000000081525060200191505060405180910390fd5b60008060008585606081101561235f57600080fd5b810190808035906020019092919080359060200190929190803560ff169060200190929190505050925092509250600060018560090160028282829054906101000a900460ff160192506101000a81548160ff021916908360ff1602179055508460090160029054906101000a900460ff16905060405180606001604052808581526020018481526020018360ff16815250600760008a815260200190815260200160002060008360ff1660ff168152602001908152602001600020600082015181600001556020820151816001015560408201518160020160006101000a81548160ff021916908360ff1602179055509050506000600f60008a815260200190815260200160002060003373ffffffffffffffffffffffffffffffffffffffff1673ffffffffffffffffffffffffffffffffffffffff16815260200190815260200160002060008360ff1660ff16815260200190815260200160002060006101000a81548160ff0219169083151502179055507f1efffc1b00b61ed1b4da111fb3b195e6d338bf34c52551491c45dd886263d80f8882868686604051808681526020018560ff1660ff1681526020018481526020018381526020018260ff1660ff1681526020019550505050505060405180910390a15050505050505050565b60008060009054906101000a900473ffffffffffffffffffffffffffffffffffffffff16905090565b6007602052816000526040600020602052806000526040600020600091509150508060000154908060010154908060020160009054906101000a900460ff16905083565b60015481565b60006125c084848461538e565b90509392505050565b6002811115612623576040517f08c379a00000000000000000000000000000000000000000000000000000000081526004018080602001828103825260228152602001806156aa6022913960400191505060405180910390fd5b6000600c600084815260200190815260200160002060003373ffffffffffffffffffffffffffffffffffffffff1673ffffffffffffffffffffffffffffffffffffffff168152602001908152602001600020826003811061268057fe5b6004020160010154116126de576040517f08c379a000000000000000000000000000000000000000000000000000000000815260040180806020018281038252602381526020018061592f6023913960400191505060405180910390fd5b6126e782615246565b506000600c600084815260200190815260200160002060003373ffffffffffffffffffffffffffffffffffffffff1673ffffffffffffffffffffffffffffffffffffffff168152602001908152602001600020826003811061274557fe5b600402019050600081600101549050600a600085815260200190815260200160002060090160009054906101000a900460ff161561287957600360009054906101000a900473ffffffffffffffffffffffffffffffffffffffff1673ffffffffffffffffffffffffffffffffffffffff166342842e0e3061dead846040518463ffffffff1660e01b8152600401808473ffffffffffffffffffffffffffffffffffffffff1673ffffffffffffffffffffffffffffffffffffffff1681526020018373ffffffffffffffffffffffffffffffffffffffff1673ffffffffffffffffffffffffffffffffffffffff1681526020018281526020019350505050600060405180830381600087803b15801561285c57600080fd5b505af1158015612870573d6000803e3d6000fd5b5050505061296f565b600360009054906101000a900473ffffffffffffffffffffffffffffffffffffffff1673ffffffffffffffffffffffffffffffffffffffff166342842e0e3033846040518463ffffffff1660e01b8152600401808473ffffffffffffffffffffffffffffffffffffffff1673ffffffffffffffffffffffffffffffffffffffff1681526020018373ffffffffffffffffffffffffffffffffffffffff1673ffffffffffffffffffffffffffffffffffffffff1681526020018281526020019350505050600060405180830381600087803b15801561295657600080fd5b505af115801561296a573d6000803e3d6000fd5b505050505b600061297b8585614dde565b90506129e081600e600088815260200190815260200160002060003373ffffffffffffffffffffffffffffffffffffffff1673ffffffffffffffffffffffffffffffffffffffff168152602001908152602001600020546151be90919063ffffffff16565b600e600087815260200190815260200160002060003373ffffffffffffffffffffffffffffffffffffffff1673ffffffffffffffffffffffffffffffffffffffff16815260200190815260200160002081905550612a618360020154600a6000888152602001908152602001600020600401546152e990919063ffffffff16565b600a600087815260200190815260200160002060040181905550612adf6001600b600088815260200190815260200160002060003373ffffffffffffffffffffffffffffffffffffffff1673ffffffffffffffffffffffffffffffffffffffff168152602001908152602001600020546152e990919063ffffffff16565b600b600087815260200190815260200160002060003373ffffffffffffffffffffffffffffffffffffffff1673ffffffffffffffffffffffffffffffffffffffff16815260200190815260200160002081905550600c600086815260200190815260200160002060003373ffffffffffffffffffffffffffffffffffffffff1673ffffffffffffffffffffffffffffffffffffffff1681526020019081526020016000208460038110612b8e57fe5b600402016000808201600090556001820160009055600282016000905560038201600090555050612bbe85615333565b3373ffffffffffffffffffffffffffffffffffffffff167f9cdcf2f7714cca3508c7f0110b04a90a80a3a8dd0e35de99689db74d28c5383e86838560405180848152602001838152602001828152602001935050505060405180910390a25050505050565b600b602052816000526040600020602052806000526040600020600091509150505481565b600d602052816000526040600020602052806000526040600020600091509150505481565b612c75614442565b73ffffffffffffffffffffffffffffffffffffffff166000809054906101000a900473ffffffffffffffffffffffffffffffffffffffff1673ffffffffffffffffffffffffffffffffffffffff1614612d36576040517f08c379a00000000000000000000000000000000000000000000000000000000081526004018080602001828103825260208152602001807f4f776e61626c653a2063616c6c6572206973206e6f7420746865206f776e657281525060200191505060405180910390fd5b60008211612d8f576040517f08c379a0000000000000000000000000000000000000000000000000000000008152600401808060200182810382526031815260200180615a606031913960400191505060405180910390fd5b6000600860008373ffffffffffffffffffffffffffffffffffffffff1673ffffffffffffffffffffffffffffffffffffffff16815260200190815260200160002054905060008111156130f6576000600660009054906101000a900473ffffffffffffffffffffffffffffffffffffffff1673ffffffffffffffffffffffffffffffffffffffff166370a08231306040518263ffffffff1660e01b8152600401808273ffffffffffffffffffffffffffffffffffffffff1673ffffffffffffffffffffffffffffffffffffffff16815260200191505060206040518083038186803b158015612e7d57600080fd5b505afa158015612e91573d6000803e3d6000fd5b505050506040513d6020811015612ea757600080fd5b8101908080519060200190929190505050905081811015612f13576040517f08c379a000000000000000000000000000000000000000000000000000000000815260040180806020018281038252602b8152602001806158ba602b913960400191505060405180910390fd5b600660009054906101000a900473ffffffffffffffffffffffffffffffffffffffff1673ffffffffffffffffffffffffffffffffffffffff1663a9059cbb84846040518363ffffffff1660e01b8152600401808373ffffffffffffffffffffffffffffffffffffffff1673ffffffffffffffffffffffffffffffffffffffff16815260200182815260200192505050602060405180830381600087803b158015612fbc57600080fd5b505af1158015612fd0573d6000803e3d6000fd5b505050506040513d6020811015612fe657600080fd5b8101908080519060200190929190505050506000600860008573ffffffffffffffffffffffffffffffffffffffff1673ffffffffffffffffffffffffffffffffffffffff168152602001908152602001600020819055506130a082600e600087815260200190815260200160002060008673ffffffffffffffffffffffffffffffffffffffff1673ffffffffffffffffffffffffffffffffffffffff168152602001908152602001600020546151be90919063ffffffff16565b600e600086815260200190815260200160002060008573ffffffffffffffffffffffffffffffffffffffff1673ffffffffffffffffffffffffffffffffffffffff16815260200190815260200160002081905550505b505050565b6000600a6000838152602001908152602001600020600401549050919050565b613123614442565b73ffffffffffffffffffffffffffffffffffffffff166000809054906101000a900473ffffffffffffffffffffffffffffffffffffffff1673ffffffffffffffffffffffffffffffffffffffff16146131e4576040517f08c379a00000000000000000000000000000000000000000000000000000000081526004018080602001828103825260208152602001807f4f776e61626c653a2063616c6c6572206973206e6f7420746865206f776e657281525060200191505060405180910390fd5b600073ffffffffffffffffffffffffffffffffffffffff168173ffffffffffffffffffffffffffffffffffffffff16141561326a576040517f08c379a000000000000000000000000000000000000000000000000000000000815260040180806020018281038252602681526020018061572c6026913960400191505060405180910390fd5b8073ffffffffffffffffffffffffffffffffffffffff166000809054906101000a900473ffffffffffffffffffffffffffffffffffffffff1673ffffffffffffffffffffffffffffffffffffffff167f8be0079c531659141344cd1fd0a4f28419497f9722a3daafe3b4186f6b6457e060405160405180910390a3806000806101000a81548173ffffffffffffffffffffffffffffffffffffffff021916908373ffffffffffffffffffffffffffffffffffffffff16021790555050565b60006007600087815260200190815260200160002060008660ff1660ff16815260200190815260200160002090506000600a6000888152602001908152602001600020905060001515600f600089815260200190815260200160002060003373ffffffffffffffffffffffffffffffffffffffff1673ffffffffffffffffffffffffffffffffffffffff16815260200190815260200160002060008860ff1660ff16815260200190815260200160002060009054906101000a900460ff1615151461343e576040517f08c379a000000000000000000000000000000000000000000000000000000000815260040180806020018281038252602e815260200180615849602e913960400191505060405180910390fd5b8060090160029054906101000a900460ff1660ff168660ff1611156134ae576040517f08c379a00000000000000000000000000000000000000000000000000000000081526004018080602001828103825260228152602001806158776022913960400191505060405180910390fd5b600080888860015433604051602001808581526020018460ff1660ff1660f81b81526001018381526020018273ffffffffffffffffffffffffffffffffffffffff1673ffffffffffffffffffffffffffffffffffffffff1660601b815260140194505050505060405160208183030381529060405280519060200120905060008160405160200180807f19457468657265756d205369676e6564204d6573736167653a0a333200000000815250601c0182815260200191505060405160208183030381529060405280519060200120905060006001828a8a8a60405160008152602001604052604051808581526020018460ff1660ff1681526020018381526020018281526020019450505050506020604051602081039080840390855afa1580156135de573d6000803e3d6000fd5b505050602060405103519050600560009054906101000a900473ffffffffffffffffffffffffffffffffffffffff1673ffffffffffffffffffffffffffffffffffffffff168173ffffffffffffffffffffffffffffffffffffffff16146136ad576040517f08c379a00000000000000000000000000000000000000000000000000000000081526004018080602001828103825260138152602001807f566572696669636174696f6e206661696c65640000000000000000000000000081525060200191505060405180910390fd5b5050506001600081546001019190508190555060008360020160009054906101000a900460ff1660ff1611156137e757600260009054906101000a900473ffffffffffffffffffffffffffffffffffffffff1673ffffffffffffffffffffffffffffffffffffffff16635642c51f3385600101548660020160009054906101000a900460ff166040518463ffffffff1660e01b8152600401808473ffffffffffffffffffffffffffffffffffffffff1673ffffffffffffffffffffffffffffffffffffffff1681526020018381526020018260ff1660ff1681526020019350505050602060405180830381600087803b1580156137a957600080fd5b505af11580156137bd573d6000803e3d6000fd5b505050506040513d60208110156137d357600080fd5b810190808051906020019092919050505090505b6001600f60008a815260200190815260200160002060003373ffffffffffffffffffffffffffffffffffffffff1673ffffffffffffffffffffffffffffffffffffffff16815260200190815260200160002060008960ff1660ff16815260200190815260200160002060006101000a81548160ff0219169083151502179055507f6f69e1874c4cf6fb171492ec99013a9f94eb37cc22655aefc2004c45ea1f73743389898487600101548860020160009054906101000a900460ff168960000154604051808873ffffffffffffffffffffffffffffffffffffffff1673ffffffffffffffffffffffffffffffffffffffff1681526020018781526020018660ff1660ff1681526020018581526020018481526020018360ff1660ff16815260200182815260200197505050505050505060405180910390a15050505050505050565b600660009054906101000a900473ffffffffffffffffffffffffffffffffffffffff1681565b600086116139c5576040517f08c379a000000000000000000000000000000000000000000000000000000000815260040180806020018281038252601b8152602001807f53657373696f6e20686173206e6f74207374617274656420796574000000000081525060200191505060405180910390fd5b6139ce8661444a565b613a40576040517f08c379a00000000000000000000000000000000000000000000000000000000081526004018080602001828103825260128152602001807f53657373696f6e206e6f7420616374697665000000000000000000000000000081525060200191505060405180910390fd5b613a4986615246565b506000600a600088815260200190815260200160002090506000600c600089815260200190815260200160002060003373ffffffffffffffffffffffffffffffffffffffff1673ffffffffffffffffffffffffffffffffffffffff1681526020019081526020016000209050613abd615660565b613ac5615660565b888860c0811015613ad557600080fd5b8101908080606001906003806020026040519081016040528092919082600360200280828437600081840152601f19601f820116905080830192505050505050919291929080606001906003806020026040519081016040528092919082600360200280828437600081840152601f19601f82011690508083019250505050505091929192905050509150915060008090505b60038160ff161015613d8c576000848260ff1660038110613b8557fe5b6004020160010154118015613bad57506000838260ff1660038110613ba657fe5b6020020151115b15613c20576040517f08c379a000000000000000000000000000000000000000000000000000000000815260040180806020018281038252601b8152602001807f53616c6f6f6e3a207468697320736c6f742069732073746f726564000000000081525060200191505060405180910390fd5b6000838260ff1660038110613c3157fe5b60200201511115613d81573373ffffffffffffffffffffffffffffffffffffffff16600360009054906101000a900473ffffffffffffffffffffffffffffffffffffffff1673ffffffffffffffffffffffffffffffffffffffff16636352211e858460ff1660038110613ca057fe5b60200201516040518263ffffffff1660e01b81526004018082815260200191505060206040518083038186803b158015613cd957600080fd5b505afa158015613ced573d6000803e3d6000fd5b505050506040513d6020811015613d0357600080fd5b810190808051906020019092919050505073ffffffffffffffffffffffffffffffffffffffff1614613d80576040517f08c379a000000000000000000000000000000000000000000000000000000000815260040180806020018281038252602281526020018061590d6022913960400191505060405180910390fd5b5b806001019050613b68565b5060008a83600060038110613d9d57fe5b602002015183600060038110613daf57fe5b602002015185600160038110613dc157fe5b602002015185600160038110613dd357fe5b602002015187600260038110613de557fe5b602002015187600260038110613df757fe5b602002015160015433604051602001808a81526020018981526020018881526020018781526020018681526020018581526020018481526020018381526020018273ffffffffffffffffffffffffffffffffffffffff1673ffffffffffffffffffffffffffffffffffffffff1660601b8152601401995050505050505050505060405160208183030381529060405280519060200120905060008160405160200180807f19457468657265756d205369676e6564204d6573736167653a0a333200000000815250601c0182815260200191505060405160208183030381529060405280519060200120905060006001828b8b8b60405160008152602001604052604051808581526020018460ff1660ff1681526020018381526020018281526020019450505050506020604051602081039080840390855afa158015613f41573d6000803e3d6000fd5b505050602060405103519050600560009054906101000a900473ffffffffffffffffffffffffffffffffffffffff1673ffffffffffffffffffffffffffffffffffffffff168173ffffffffffffffffffffffffffffffffffffffff1614613ff3576040517f08c379a00000000000000000000000000000000000000000000000000000000081526004018080602001828103825260308152602001806158196030913960400191505060405180910390fd5b5050506001600081546001019190508190555060008090505b60038160ff161015614319576000838260ff166003811061402957fe5b6020020151111561430e57600360009054906101000a900473ffffffffffffffffffffffffffffffffffffffff1673ffffffffffffffffffffffffffffffffffffffff166342842e0e3330868560ff166003811061408357fe5b60200201516040518463ffffffff1660e01b8152600401808473ffffffffffffffffffffffffffffffffffffffff1673ffffffffffffffffffffffffffffffffffffffff1681526020018373ffffffffffffffffffffffffffffffffffffffff1673ffffffffffffffffffffffffffffffffffffffff1681526020018281526020019350505050600060405180830381600087803b15801561412457600080fd5b505af1158015614138573d6000803e3d6000fd5b505050506141a06001600b60008e815260200190815260200160002060003373ffffffffffffffffffffffffffffffffffffffff1673ffffffffffffffffffffffffffffffffffffffff168152602001908152602001600020546151be90919063ffffffff16565b600b60008d815260200190815260200160002060003373ffffffffffffffffffffffffffffffffffffffff1673ffffffffffffffffffffffffffffffffffffffff1681526020019081526020016000208190555061421e828260ff166003811061420657fe5b602002015186600401546151be90919063ffffffff16565b85600401819055506040518060800160405280428152602001848360ff166003811061424657fe5b60200201518152602001838360ff166003811061425f57fe5b602002015181526020016000815250848260ff166003811061427d57fe5b60040201600082015181600001556020820151816001015560408201518160020155606082015181600301559050506142f3670de0b6b3a76400006142e5868460ff16600381106142ca57fe5b600402016002015488600701546144e190919063ffffffff16565b61456790919063ffffffff16565b848260ff166003811061430257fe5b60040201600301819055505b80600101905061400c565b506143238a615333565b42600d60008c815260200190815260200160002060003373ffffffffffffffffffffffffffffffffffffffff1673ffffffffffffffffffffffffffffffffffffffff168152602001908152602001600020819055507f0a5c854539f6e93fcd4a8397bfae8bdb751b4e819840f1c8681e6ad7ff19c5b5338b846000600381106143a857fe5b6020020151856001600381106143ba57fe5b6020020151866002600381106143cc57fe5b602002015142604051808773ffffffffffffffffffffffffffffffffffffffff1673ffffffffffffffffffffffffffffffffffffffff168152602001868152602001858152602001848152602001838152602001828152602001965050505050505060405180910390a150505050505050505050565b600033905090565b600080600a600084815260200190815260200160002060000154141561447357600090506144ce565b6000600a6000848152602001908152602001600020600201544210806144c65750600a600084815260200190815260200160002060010154600a6000858152602001908152602001600020600201540142115b905080159150505b919050565b600081600001549050919050565b6000808314156144f45760009050614561565b600082840290508284828161450557fe5b041461455c576040517f08c379a00000000000000000000000000000000000000000000000000000000081526004018080602001828103825260218152602001806158996021913960400191505060405180910390fd5b809150505b92915050565b60006145a983836040518060400160405280601a81526020017f536166654d6174683a206469766973696f6e206279207a65726f0000000000008152506154da565b905092915050565b6001816000016000828254019250508190555050565b600080600c600088815260200190815260200160002060003373ffffffffffffffffffffffffffffffffffffffff1673ffffffffffffffffffffffffffffffffffffffff168152602001908152602001600020905060008160006003811061462b57fe5b600402016001015411614689576040517f08c379a000000000000000000000000000000000000000000000000000000000815260040180806020018281038252602a81526020018061578d602a913960400191505060405180910390fd5b60008160016003811061469857fe5b6004020160010154116146f6576040517f08c379a000000000000000000000000000000000000000000000000000000000815260040180806020018281038252602a81526020018061578d602a913960400191505060405180910390fd5b60008160026003811061470557fe5b600402016001015411614763576040517f08c379a000000000000000000000000000000000000000000000000000000000815260040180806020018281038252602a81526020018061578d602a913960400191505060405180910390fd5b6000868260006003811061477357fe5b60040201600101548360016003811061478857fe5b60040201600101548460026003811061479d57fe5b6004020160010154600154604051602001808681526020018581526020018481526020018381526020018281526020019550505050505060405160208183030381529060405280519060200120905060008160405160200180807f19457468657265756d205369676e6564204d6573736167653a0a333200000000815250601c01828152602001915050604051602081830303815290604052805190602001209050600060018289898960405160008152602001604052604051808581526020018460ff1660ff1681526020018381526020018281526020019450505050506020604051602081039080840390855afa15801561489e573d6000803e3d6000fd5b505050602060405103519050600560009054906101000a900473ffffffffffffffffffffffffffffffffffffffff1673ffffffffffffffffffffffffffffffffffffffff168173ffffffffffffffffffffffffffffffffffffffff1614614950576040517f08c379a00000000000000000000000000000000000000000000000000000000081526004018080602001828103825260318152602001806156cc6031913960400191505060405180910390fd5b60016000815460010191905081905550600194505050505095945050505050565b6000806000905060008090505b60038110156149b1576149a461499586338461538e565b836151be90919063ffffffff16565b915080600101905061497e565b506000614a10670de0b6b3a7640000614a02620f42406149f4886149e6670de0b6b3a7640000896144e190919063ffffffff16565b6144e190919063ffffffff16565b61456790919063ffffffff16565b61456790919063ffffffff16565b905080600660009054906101000a900473ffffffffffffffffffffffffffffffffffffffff1673ffffffffffffffffffffffffffffffffffffffff1663dd62ed3e614a59612540565b306040518363ffffffff1660e01b8152600401808373ffffffffffffffffffffffffffffffffffffffff1673ffffffffffffffffffffffffffffffffffffffff1681526020018273ffffffffffffffffffffffffffffffffffffffff1673ffffffffffffffffffffffffffffffffffffffff1681526020019250505060206040518083038186803b158015614aed57600080fd5b505afa158015614b01573d6000803e3d6000fd5b505050506040513d6020811015614b1757600080fd5b81019080805190602001909291905050501015614b7f576040517f08c379a000000000000000000000000000000000000000000000000000000000815260040180806020018281038252602a8152602001806157b7602a913960400191505060405180910390fd5b6000600660009054906101000a900473ffffffffffffffffffffffffffffffffffffffff1673ffffffffffffffffffffffffffffffffffffffff166323b872dd614bc7612540565b33856040518463ffffffff1660e01b8152600401808473ffffffffffffffffffffffffffffffffffffffff1673ffffffffffffffffffffffffffffffffffffffff1681526020018373ffffffffffffffffffffffffffffffffffffffff1673ffffffffffffffffffffffffffffffffffffffff1681526020018281526020019350505050602060405180830381600087803b158015614c6557600080fd5b505af1158015614c79573d6000803e3d6000fd5b505050506040513d6020811015614c8f57600080fd5b8101908080519060200190929190505050905080614cb35760009350505050614dd8565b614d1682600e600089815260200190815260200160002060003373ffffffffffffffffffffffffffffffffffffffff1673ffffffffffffffffffffffffffffffffffffffff168152602001908152602001600020546151be90919063ffffffff16565b600e600088815260200190815260200160002060003373ffffffffffffffffffffffffffffffffffffffff1673ffffffffffffffffffffffffffffffffffffffff168152602001908152602001600020819055503373ffffffffffffffffffffffffffffffffffffffff167fb938abfffb3646437abc3fd52cf0af1e569798921f921cf411a791dd2fa9fdd7878585896040518085815260200184815260200183815260200182815260200194505050505060405180910390a2600193505050505b92915050565b600080600a600085815260200190815260200160002090506000614e0385338661538e565b90506000600660009054906101000a900473ffffffffffffffffffffffffffffffffffffffff1673ffffffffffffffffffffffffffffffffffffffff166370a08231306040518263ffffffff1660e01b8152600401808273ffffffffffffffffffffffffffffffffffffffff1673ffffffffffffffffffffffffffffffffffffffff16815260200191505060206040518083038186803b158015614ea657600080fd5b505afa158015614eba573d6000803e3d6000fd5b505050506040513d6020811015614ed057600080fd5b81019080805190602001909291905050509050600082118015614ef257508082115b156150ad57614f5b600860003373ffffffffffffffffffffffffffffffffffffffff1673ffffffffffffffffffffffffffffffffffffffff16815260200190815260200160002054614f4d83856152e990919063ffffffff16565b6151be90919063ffffffff16565b600860003373ffffffffffffffffffffffffffffffffffffffff1673ffffffffffffffffffffffffffffffffffffffff16815260200190815260200160002081905550600660009054906101000a900473ffffffffffffffffffffffffffffffffffffffff1673ffffffffffffffffffffffffffffffffffffffff1663a9059cbb33836040518363ffffffff1660e01b8152600401808373ffffffffffffffffffffffffffffffffffffffff1673ffffffffffffffffffffffffffffffffffffffff16815260200182815260200192505050602060405180830381600087803b15801561504757600080fd5b505af115801561505b573d6000803e3d6000fd5b505050506040513d602081101561507157600080fd5b81019080805190602001909291905050505061509a8184600301546151be90919063ffffffff16565b83600301819055508093505050506151b8565b600660009054906101000a900473ffffffffffffffffffffffffffffffffffffffff1673ffffffffffffffffffffffffffffffffffffffff1663a9059cbb33846040518363ffffffff1660e01b8152600401808373ffffffffffffffffffffffffffffffffffffffff1673ffffffffffffffffffffffffffffffffffffffff16815260200182815260200192505050602060405180830381600087803b15801561515657600080fd5b505af115801561516a573d6000803e3d6000fd5b505050506040513d602081101561518057600080fd5b8101908080519060200190929190505050506151a98284600301546151be90919063ffffffff16565b83600301819055508193505050505b92915050565b60008082840190508381101561523c576040517f08c379a000000000000000000000000000000000000000000000000000000000815260040180806020018281038252601b8152602001807f536166654d6174683a206164646974696f6e206f766572666c6f77000000000081525060200191505060405180910390fd5b8091505092915050565b600080600a60008481526020019081526020016000209050600042905061526c8461444a565b61528e5761528b826001015483600201546151be90919063ffffffff16565b90505b6152d16152be83600601546152b08560080154856152e990919063ffffffff16565b6144e190919063ffffffff16565b83600701546151be90919063ffffffff16565b82600701819055508082600801819055505050919050565b600061532b83836040518060400160405280601e81526020017f536166654d6174683a207375627472616374696f6e206f766572666c6f7700008152506155a0565b905092915050565b6000600a60008381526020019081526020016000209050600081600401541415615366576000816006018190555061538a565b6153818160040154826005015461456790919063ffffffff16565b81600601819055505b5050565b600080600a600086815260200190815260200160002090506000600c600087815260200190815260200160002060008673ffffffffffffffffffffffffffffffffffffffff1673ffffffffffffffffffffffffffffffffffffffff168152602001908152602001600020846003811061540357fe5b60040201905060004290506154178761444a565b61543957615436836001015484600201546151be90919063ffffffff16565b90505b600061547e61546b856006015461545d8760080154866152e990919063ffffffff16565b6144e190919063ffffffff16565b85600701546151be90919063ffffffff16565b905060006154c984600301546154bb670de0b6b3a76400006154ad8689600201546144e190919063ffffffff16565b61456790919063ffffffff16565b6152e990919063ffffffff16565b905080955050505050509392505050565b60008083118290615586576040517f08c379a00000000000000000000000000000000000000000000000000000000081526004018080602001828103825283818151815260200191508051906020019080838360005b8381101561554b578082015181840152602081019050615530565b50505050905090810190601f1680156155785780820380516001836020036101000a031916815260200191505b509250505060405180910390fd5b50600083858161559257fe5b049050809150509392505050565b600083831115829061564d576040517f08c379a00000000000000000000000000000000000000000000000000000000081526004018080602001828103825283818151815260200191508051906020019080838360005b838110156156125780820151818401526020810190506155f7565b50505050905090810190601f16801561563f5780820380516001836020036101000a031916815260200191505b509250505060405180910390fd5b5060008385039050809150509392505050565b604051806060016040528060039060208202803683378082019150509050509056fe4e4654205374616b696e673a20626f6e7573207369676e617475726520697320696e76616c69644e6674205374616b696e673a20736c6f7420696e64657820697320696e76616c69644e4654205374616b696e673a20536561736361706520706f696e74732c20766572696669636174696f6e206661696c65646f6e455243373231526563656976656428616464726573732c616464726573732c75696e743235362c6279746573294f776e61626c653a206e6577206f776e657220697320746865207a65726f20616464726573735365617363617065205374616b696e673a2053657373696f6e206475726174696f6e2073686f756c642062652067726561746572207468616e20304e4654205374616b696e673a20666972737420736c6f7420697320656d70747920666f7220626f6e75735365617363617065205374616b696e673a204e6f7420656e6f75676820626f6e75732062616c616e63655365617363617065205374616b696e673a2052657761726420616d6f756e742073686f756c642062652067726561746572207468616e20304e6674205374616b696e673a20536561736361706520706f696e747320766572696669636174696f6e206661696c656473616c6f6f6e3a2074686973207369676e69642072657761726420697320616c726561647920726563656976656473616c6f6f6e3a20746869732072657761726420646f206e6f74205f7461674e756d536166654d6174683a206d756c7469706c69636174696f6e206f766572666c6f774e6674205374616b696e673a204e6f7420656e6f7567682043726f776e7320746f207472616e736665722173616c6f6f6e3a207369676e696e2072657761726420697376616c696464617461206661696c656453616c6f6f6e3a204e6674206973206e6f74206f776e65642062792063616c6c65724e6674205374616b696e673a20536c6f7420617420696e64657820697320656d70747973616c6f6f6e3a204e6f7420656e6f7567682062616c616e6365206f662072657761726420746f6b656e5365617363617065205374616b696e673a205365617373696f6e2073686f756c6420737461727420696e207468652066757475726573616c6f6f6e3a204e6f7420656e6f7567682062616c616e6365206f66206e6174697665207265776172644e4654205374616b696e673a206661696c656420746f207472616e7366657220626f6e757320746f20706c617965724e667420466163746f72792063616e2774206265207a65726f20616464726573735365617363617065205374616b696e673a2043616e2774207374617274207768656e2073657373696f6e206973206163746976654e6674205374616b696e673a2053657373696f6e2069642073686f756c642062652067726561746572207468616e203021a2646970667358221220365344c20bb86a94d97d25cf4ab4cf70bbfef1cc2eca1d916c2ece63b643a0a064736f6c634300060700334e667420466163746f72792063616e2774206265207a65726f2061646472657373",
  "immutableReferences": {},
  "source": "pragma solidity 0.6.7;\r\n\r\nimport \"./../openzeppelin/contracts/token/ERC20/IERC20.sol\";\r\nimport \"./../openzeppelin/contracts/token/ERC20/SafeERC20.sol\";\r\nimport \"./../openzeppelin/contracts/access/Ownable.sol\";\r\nimport \"./../openzeppelin/contracts/math/SafeMath.sol\";\r\nimport \"./../openzeppelin/contracts/utils/Counters.sol\";\r\nimport \"./../openzeppelin/contracts/token/ERC721/IERC721Receiver.sol\";\r\nimport \"./../seascape_nft/NftFactory.sol\";\r\nimport \"./../seascape_nft/SeascapeNft.sol\";\r\n\r\n/// @title Seascape NFT staking contract.\r\n/// @author Medet Ahmetson <admin@blocklords.io>\r\n/// @notice Nft Staking contract allows users to earn CWS token by staking NFTs.\r\n/// Nfts will have a Seascape point. Which is the weight of token\r\n/// in Seascape Network platform. The Seascape Point is calculated by Nft parameters\r\n/// such as generation and quality.\r\n/// The higher the NFT weight, the more user gets reward for NFT staking.\r\ncontract NftStaking is Ownable, IERC721Receiver {\r\n    using SafeMath for uint256;\r\n    using Counters for Counters.Counter;//\r\n\r\n    uint256 constant MULTIPLIER = 10**18;\r\n\r\n    uint public nonce = 0;\r\n\r\n    NftFactory nftFactory;//\r\n\r\n    SeascapeNft private nft;//\r\n\r\n    Counters.Counter private sessionId;//\r\n    address public verifier;//\r\n    IERC20 public rewardToken;//\r\n\r\n    /// @notice game event struct. as event is a solidity keyword, we call them session instead.\r\n    struct Session {\r\n        uint256 totalReward;   // amount of CWS to give as a reward during the session.\r\n        uint256 period;        // session duration in seconds\r\n        uint256 startTime;     // session start in unixtimestamp\r\n        uint256 claimed;       // amount of distributed reward \r\n        uint256 totalSp;       // amount of seascape points of all NFTs deposited to the session by users\r\n    \tuint256 rewardUnit;       // reward per second = totalReward/period \r\n        uint256 interestPerPoint;  \r\n        uint256 claimedPerPoint;   \r\n        uint256 lastInterestUpdate;  \r\n        bool burn;             //default true or false depends on request.  burn or don't burn\r\n        bool specify;          //default true or false depends on request.  specify NFT or don't  \r\n        uint8 signinRewardNum; //total sign reward number about this session  \r\n    }\r\n\r\n    /// @notice balance of lp token that each player deposited to game session\r\n    struct Balance {               \r\n        uint256 claimedTime;       // amount of claimed CWS reward\r\n    \tuint256 nftId;             // nftID\r\n        uint256 sp;                // seascape points\r\n        uint256 claimedAmount;     // claimed reward\r\n    }\r\n\r\n    struct Params {                \r\n        uint256 imgId;            \r\n        uint256 generation;        \r\n        uint8   quality;           \r\n    }\r\n\r\n    // give to the user reward, when the signin requirements are met\r\n    mapping(uint256 => mapping(uint8 => Params)) public signinRewards;\r\n\r\n    mapping(address => uint256) debts;\r\n\r\n    /// @dev keep track of the current session\r\n    uint256 public lastSessionId;\r\n    mapping(uint256 => Session) public sessions;\r\n    mapping(uint256 => mapping(address => uint256)) public slots;\r\n    mapping(uint256 => mapping(address => Balance[3])) public balances;\r\n    mapping(uint256 => mapping(address => uint)) public depositTimes;\r\n    mapping(uint256 => mapping(address => uint256)) public earning;\r\n    mapping(uint256 => mapping(address => mapping(uint8 => bool))) public received; //default false, if get a reward change true\r\n\r\n    event SessionStarted(uint256 sessionIdd, uint256 reward, uint256 startTime, uint256 endTime);\r\n    event Deposited(address msgsender, uint256 _sessionId, uint256 nfts0, uint256 nfts1, uint256 nfts2, uint256 Dtime);\r\n    event Claimed(address indexed owner, uint256 sessionId, uint256 amount, uint256 nftId);\r\n    event BonusClaimed(address indexed owner, uint256 sessionId, uint256 baseAmount, uint256 amountWithBonus, uint256 percents);\r\n    event NftFactorySet(address factory);\r\n    event AddSignInReward(uint256 sessionId, uint8 completedNum, uint256 imgId, uint256 generation, uint8 quality);\r\n    event GetSignInReward(address owner, uint256 sessionId, uint8 completedNum, uint256 NftId, uint256 generation, uint8 quality, uint256 imgId);\r\n\r\n    /// @dev instantinate contracts, start session\r\n    constructor(address _nftFactory, address _nft) public {\r\n        require(_nftFactory != address(0), \"Nft Factory can't be zero address\");\r\n        require(_nft != address(0), \"Nft can't be zero address\");\r\n        sessionId.increment(); \t// starts at value 1\r\n        nftFactory = NftFactory(_nftFactory);\r\n        nft = SeascapeNft(_nft);\r\n    }\r\n\r\n    //--------------------------------------------------\r\n    // External methods\r\n    //--------------------------------------------------\r\n\r\n    /// @dev encrypt token data\r\n    function onERC721Received(\r\n        address operator,\r\n        address from,\r\n        uint256 tokenId,\r\n        bytes calldata data\r\n    )\r\n        external\r\n        override\r\n        returns (bytes4)\r\n    {\r\n      return bytes4(keccak256(\"onERC721Received(address,address,uint256,bytes)\"));\r\n    }\r\n\r\n    /// @notice Starts a staking session for a finite _period of\r\n    /// time, starting from _startTime. The _totalReward of\r\n    /// CWS tokens will be distributed in every second.\r\n    /// _\r\n    function startSession(\r\n        address _rewardToken,\r\n        uint256 _totalReward,\r\n        uint256 _period,\r\n        uint256 _startTime,\r\n        address _verifier,\r\n        bool _burn,//true burn nft, false don't burn nft.\r\n        bool _specify//true specify nft, false unspecify nft.\r\n    )\r\n        external\r\n        onlyOwner\r\n    {\r\n        require(_rewardToken != address(0), \"Token can't be zero address\");\r\n        require(_startTime > block.timestamp, \"Seascape Staking: Seassion should start in the future\");\r\n        require(_period > 0, \"Seascape Staking: Session duration should be greater than 0\");\r\n    \trequire(_totalReward > 0, \"Seascape Staking: Reward amount should be greater than 0\");\r\n        require(_verifier != address(0), \"verifier can't be zero address\");\r\n\r\n      \tif (lastSessionId > 0) {\r\n      \t    require(!isActive(lastSessionId), \"Seascape Staking: Can't start when session is active\");\r\n      \t}\r\n        \r\n        if (_rewardToken != address(0)) {\r\n            IERC20 _reward = IERC20(_rewardToken);\r\n\r\n            // required reward balance of this contract\r\n            require(_reward.balanceOf(address(this)) >= _totalReward, \"saloon: Not enough balance of reward token\");\r\n        } else {\r\n            require(address(this).balance >= _totalReward, \"saloon: Not enough balance of native reward\");\r\n        }\r\n      \t/// @dev required CWS balance of this contract\r\n\r\n      \t//--------------------------------------------------------------------\r\n      \t// creating the session\r\n      \t//--------------------------------------------------------------------\r\n      \tuint256 _sessionId = sessionId.current();\r\n      \tuint256 _rewardUnit = _totalReward.mul(MULTIPLIER).div(_period);\r\n        sessions[_sessionId] = Session(_totalReward, _period, _startTime, 0, 0, _rewardUnit, 0, 0, _startTime, _burn, _specify, 0);\r\n\r\n      \t//--------------------------------------------------------------------\r\n        // updating rest of session related data\r\n      \t//--------------------------------------------------------------------\r\n      \tsessionId.increment();\r\n        rewardToken = IERC20(_rewardToken);\r\n      \tlastSessionId = _sessionId;\r\n        verifier = _verifier;\r\n\r\n      \temit SessionStarted(_sessionId, _totalReward, _startTime, _startTime + _period);\r\n    }\r\n\r\n    /// @dev sets an nft factory, a smartcontract that mints tokens.\r\n    /// the nft factory should give a permission on it's own side to this contract too.\r\n    function setNftFactory(address _address) external onlyOwner {\r\n        require(_address != address(0), \"Nft Factory can't be zero address\");\r\n        nftFactory = NftFactory(_address);\r\n\r\n        emit NftFactorySet(_address);\r\n    }\r\n\r\n    function payDebt(uint256 _sessionId, address _address) external onlyOwner {\r\n        require(_sessionId > 0, \"Nft Staking: Session id should be greater than 0!\");\r\n\r\n\t\tuint256 _debt = debts[_address];\r\n        if (_debt > 0) {\r\n\t\t\tuint256 crownsBalance = rewardToken.balanceOf(address(this));\r\n\t\t\trequire(crownsBalance >= _debt, \"Nft Staking: Not enough Crowns to transfer!\");\r\n\r\n\t\t\trewardToken.transfer(_address, _debt);\r\n\t\t\tdebts[_address] = 0;\r\n\r\n            earning[_sessionId][_address] = earning[_sessionId][_address].add(_debt);\r\n\t\t}\r\n\t}\r\n\r\n    /// @notice deposits nft to stake along with it's SP\r\n    \r\n\r\n    function deposit(uint256 _sessionId, bytes calldata data, uint8 _v, bytes32 _r, bytes32 _s) external{\r\n        require(_sessionId > 0, \"Session has not started yet\");\r\n        require(isActive(_sessionId), \"Session not active\");\r\n        \r\n        updateCalculation(_sessionId);\r\n        Session storage _session = sessions[_sessionId];\r\n        Balance[3] storage _balances = balances[_sessionId][msg.sender];\r\n        (uint256[3] memory _nfts, uint256[3] memory _sp) = abi.decode(data, (uint256[3], uint256[3]));\r\n        \r\n        //Check whether NFT is stored in the card slot\r\n        for(uint8 _index = 0; _index < 3; ++_index){\r\n            require(!(_balances[_index].nftId > 0 && _nfts[_index] > 0), \"Saloon: this slot is stored\");\r\n             if(_nfts[_index] > 0) {\r\n             require(nft.ownerOf(_nfts[_index]) == msg.sender, \"Saloon: Nft is not owned by caller\");\r\n            }\r\n        }\r\n\r\n        //verify VRS\r\n        {\r\n            bytes32 _messageNoPrefix = keccak256(abi.encodePacked(_sessionId, _nfts[0], _sp[0], _nfts[1], _sp[1], _nfts[2], _sp[2], nonce, msg.sender));\r\n            bytes32 _message = keccak256(abi.encodePacked(\"\\x19Ethereum Signed Message:\\n32\", _messageNoPrefix));\r\n            address _recover = ecrecover(_message, _v, _r, _s);\r\n            require(_recover == verifier,  \"Nft Staking: Seascape points verification failed\");\r\n        }\r\n        ++nonce;\r\n        //If deposit NFT,Transfer of NFT and change the variable \r\n        for (uint8 _index = 0; _index < 3; ++_index) {\r\n\r\n            if(_nfts[_index] > 0) {\r\n                //transfer NFT to contract\r\n                nft.safeTransferFrom(msg.sender, address(this), _nfts[_index]);\r\n                slots[_sessionId][msg.sender] = slots[_sessionId][msg.sender].add(1);\r\n                _session.totalSp = _session.totalSp.add(_sp[_index]);\r\n\r\n                _balances[_index] = Balance(block.timestamp, _nfts[_index], _sp[_index], 0);\r\n                _balances[_index].claimedAmount = _session.claimedPerPoint.mul(_balances[_index].sp).div(MULTIPLIER); // 0\r\n            }         \r\n        }\r\n\r\n        // update the interestPerPoint variable of the session\r\n        updateInterestPerPoint(_sessionId);\r\n\r\n        depositTimes[_sessionId][msg.sender] = block.timestamp;\r\n        \r\n        emit Deposited(msg.sender, _sessionId, _nfts[0], _nfts[1], _nfts[2], block.timestamp);\r\n    }\r\n\r\n    function claim(uint256 _sessionId, uint256 _index) external {\r\n        require(_index <= 2, \"Nft Staking: slot index is invalid\");\r\n        require(balances[_sessionId][msg.sender][_index].nftId > 0, \"Nft Staking: Slot at index is empty\");\r\n\r\n        updateCalculation(_sessionId);\r\n\r\n      \tBalance storage _balance = balances[_sessionId][msg.sender][_index];\r\n      \tuint256 _nftId = _balance.nftId;\r\n\r\n        if( sessions[_sessionId].burn) {\r\n            nft.safeTransferFrom(address(this), 0x000000000000000000000000000000000000dEaD, _nftId);\r\n        } else {\r\n            nft.safeTransferFrom(address(this), msg.sender, _nftId);\r\n        }\r\n\r\n\t    uint256 _claimed = transfer(_sessionId, _index);\r\n\t\r\n        earning[_sessionId][msg.sender] = earning[_sessionId][msg.sender].add(_claimed);\r\n\r\n      \tsessions[_sessionId].totalSp = sessions[_sessionId].totalSp.sub(_balance.sp);\r\n      \tslots[_sessionId][msg.sender] = slots[_sessionId][msg.sender].sub(1);\r\n\r\n      \tdelete balances[_sessionId][msg.sender][_index];\r\n\r\n        updateInterestPerPoint(_sessionId);\r\n\r\n      \temit Claimed(msg.sender, _sessionId, _claimed, _nftId);\r\n    }\r\n\r\n    /// @dev Claim all crowns for staked nfts.\r\n    /// Nfts are burned in the process.\r\n    /// Give bonus if all slots are full.\r\n    function claimAll(\r\n        uint256 _sessionId,\r\n        uint256 _bonusPercent,\r\n        uint8 _v,\r\n        bytes32 _r,\r\n        bytes32 _s\r\n    )\r\n        external\r\n    {\r\n\t    require(slots[_sessionId][msg.sender] > 0, \"Nft Staking: all slots are empty\");\r\n\r\n      \t/// @dev Check if all three slots are full\r\n        /// and signature is verified, then we will process bonus\r\n        /// if specify is true, send bonus\r\n      \tif (slots[_sessionId][msg.sender] == 3 && _bonusPercent > 0 && sessions[_sessionId].specify) {\r\n      \t    require(verifyBonus(_sessionId, _bonusPercent, _v, _r, _s), \"NFT Staking: bonus signature is invalid\");\r\n            require(giveBonus(_sessionId, _bonusPercent), \"NFT Staking: failed to transfer bonus to player\");\r\n      \t}\r\n\r\n\t    claimAll(_sessionId);\r\n    }\r\n\r\n    function claimAll(uint256 _sessionId) public {\r\n\t    require(slots[_sessionId][msg.sender] > 0, \"Nft Staking: all slots are empty\");\r\n\r\n      \tfor (uint _index=0; _index < 3; ++_index) {\r\n            Balance storage _balance = balances[_sessionId][msg.sender][_index];\r\n\r\n            if (_balance.nftId > 0){\r\n                uint256 _claimed = transfer(_sessionId, _index);\r\n\r\n                earning[_sessionId][msg.sender] = earning[_sessionId][msg.sender].add(_claimed);\r\n\r\n                updateCalculation(_sessionId);\r\n\r\n          \t    uint256 _nftId = _balance.nftId;\r\n    \t        uint256 _sp = _balance.sp;\r\n          \t   \r\n                if( sessions[_sessionId].burn) {\r\n                    nft.safeTransferFrom(address(this), 0x000000000000000000000000000000000000dEaD, _nftId);\r\n                } else {\r\n                    nft.safeTransferFrom(address(this), msg.sender, _nftId);\r\n                }\r\n                \r\n          \t    delete balances[_sessionId][msg.sender][_index];\r\n    \t    \r\n          \t    sessions[_sessionId].totalSp = sessions[_sessionId].totalSp.sub(_sp);\r\n\r\n                updateInterestPerPoint(_sessionId);\r\n\r\n          \t    emit Claimed(msg.sender, _sessionId, _claimed, _nftId);\r\n            }\r\n      \t}\r\n\r\n  \t    slots[_sessionId][msg.sender] = 0;\r\n    }\r\n\r\n\r\n    /// @notice Returns amount of CWS Tokens that _address could claim.\r\n    function claimable(uint256 _sessionId, address _address, uint256 _index)\r\n        external\r\n        view\r\n        returns(uint256)\r\n    {\r\n\t      return calculateInterest(_sessionId, _address, _index);\r\n    }\r\n\r\n    /// @notice Returns total amount of Staked LP Tokens\r\n    function stakedBalance(uint256 _sessionId) external view returns(uint256) {\r\n\t      return sessions[_sessionId].totalSp;\r\n    }\r\n\r\n    //---------------------------------------------------\r\n    // Internal methods\r\n    //---------------------------------------------------\r\n\r\n    /// @dev verify bonus signature\r\n    /// @notice Returns true if signature is valid\r\n    function verifyBonus(\r\n        uint256 _sessionId,\r\n        uint256 _bonusPercent,\r\n        uint8 _v,\r\n        bytes32 _r,\r\n        bytes32 _s\r\n    ) \r\n        internal\r\n        returns(bool)\r\n    {\r\n\r\n        Balance[3] storage _balance = balances[_sessionId][msg.sender];\r\n\r\n        require(_balance[0].nftId > 0, \"NFT Staking: first slot is empty for bonus\");\r\n        require(_balance[1].nftId > 0, \"NFT Staking: first slot is empty for bonus\");\t\t\r\n        require(_balance[2].nftId > 0, \"NFT Staking: first slot is empty for bonus\");\r\n\t\t\t\r\n        /// @dev 2. a message from bonus +nft slot 1, slot 2, slot 3\r\n        bytes32 _messageNoPrefix = keccak256(abi.encodePacked(\r\n            _bonusPercent,\r\n            _balance[0].nftId,\r\n            _balance[1].nftId,\r\n            _balance[2].nftId,\r\n            nonce\r\n        ));\r\n        /// Validation of bonus\r\n\t    /// @dev 3. verify that signature for message was signed by contract owner\r\n      \tbytes32 _message = keccak256(abi.encodePacked(\"\\x19Ethereum Signed Message:\\n32\", _messageNoPrefix));\r\n      \taddress _recover = ecrecover(_message, _v, _r, _s);\r\n      \trequire(_recover == verifier, \"NFT Staking: Seascape points, verification failed\");\r\n        ++nonce;\r\n\r\n        return true;\r\n    }\r\n\r\n    /// @dev calculate total bonus in crowns and send it to player\r\n    /// @notice Returns true if bonus transaction was successful\r\n    function giveBonus(uint256 _sessionId, uint256 _bonusPercent) internal returns(bool) {\r\n\t    uint256 _interests = 0;\r\n\t\r\n        for(uint _index = 0; _index < 3; ++_index){\r\n\t        _interests = _interests.add(calculateInterest(_sessionId, msg.sender, _index));\r\n        }\r\n\r\n\t    uint256 _totalBonus = _interests.mul(MULTIPLIER).mul(_bonusPercent).div(1000000).div(MULTIPLIER);\r\n        require(rewardToken.allowance(owner(), address(this)) >= _totalBonus, \"Seascape Staking: Not enough bonus balance\");\r\n\r\n        bool res = rewardToken.transferFrom(owner(), msg.sender, _totalBonus);\r\n        if (!res) {\r\n            return false;\r\n        }\r\n\r\n        earning[_sessionId][msg.sender] = earning[_sessionId][msg.sender].add(_totalBonus);\r\n\r\n        emit BonusClaimed(msg.sender, _sessionId, _interests, _totalBonus, _bonusPercent);\r\n\r\n        return true;\r\n    }\r\n\r\n    /// @dev earned CWS tokens are sent to Nft staker\r\n    function transfer(uint256 _sessionId, uint256 _index) internal returns(uint256) {\r\n        Session storage _session = sessions[_sessionId];\r\n\r\n        uint256 _interest = calculateInterest(_sessionId, msg.sender, _index);\r\n\r\n        uint256 _crownsBalance = rewardToken.balanceOf(address(this));\r\n        if (_interest > 0 && _interest > _crownsBalance) {\r\n            debts[msg.sender] = _interest.sub(_crownsBalance).add(debts[msg.sender]);\r\n            rewardToken.transfer(msg.sender, _crownsBalance);\r\n            _session.claimed = _session.claimed.add(_crownsBalance);\r\n\r\n            return _crownsBalance;\r\n        } else {\r\n            rewardToken.transfer(msg.sender, _interest);\r\n            _session.claimed = _session.claimed.add(_interest);\r\n        }\r\n\r\n        return _interest;\r\n    }\r\n\r\n    /// @dev Calculate interest amount in crowns for individual slot\r\n    /// @notice Returns interest amount (in number)\r\n    function calculateInterest(uint256 _sessionId, address _address, uint256 _index) internal view returns(uint256) {\r\n\t    Session storage _session = sessions[_sessionId];\r\n\t    Balance storage _balance = balances[_sessionId][_address][_index];\r\n\r\n\t    /// @dev  How much of total deposit belongs to player as a floating number\r\n\t    uint256 _sessionCap = block.timestamp;\r\n\t    if (!isActive(_sessionId)) {\r\n\t        _sessionCap = _session.startTime.add(_session.period);\r\n\t    }\r\n\r\n        uint256 claimedPerPoint = _session.claimedPerPoint.add(\r\n            _sessionCap.sub(_session.lastInterestUpdate).mul(_session.interestPerPoint));\r\n\r\n        uint256 _interest = _balance.sp.mul(claimedPerPoint).div(MULTIPLIER).sub(_balance.claimedAmount);\r\n\r\n\t    return _interest;\r\n    }\r\n\r\n    /// @notice Returns true if session is active\r\n    function isActive(uint256 _sessionId) internal view returns(bool) {\r\n\t    if (sessions[_sessionId].totalReward == 0) {\r\n\t        return false;\r\n\t    }\r\n\r\n        bool notActive = (now < sessions[_sessionId].startTime || \r\n                          now > sessions[_sessionId].startTime + sessions[_sessionId].period);\r\n\r\n        return !notActive;\r\n    }\r\n\r\n    \t\r\n    /// @dev updateInterestPerToken set's up the amount of tokens earned since the beginning\r\n\t/// of the session to 1 token. It also updates the portion of it for the user.\r\n\t/// @param _sessionId is a session id\r\n\tfunction updateCalculation(uint256 _sessionId) internal returns(bool) {\r\n\t\tSession storage _session = sessions[_sessionId];\r\n\r\n\t\tuint256 _sessionCap = block.timestamp;\r\n\t\tif (!isActive(_sessionId)) {\r\n\t\t\t_sessionCap = _session.startTime.add(_session.period);\r\n\t\t}\r\n\r\n        // I calculate previous claimed rewards\r\n        // (session.claimedPerPoint += (now - session.lastInterestUpdate) * session.interestPerToken)\r\n\t\t_session.claimedPerPoint = _session.claimedPerPoint.add(\r\n\t\t\t_sessionCap.sub(_session.lastInterestUpdate).mul(_session.interestPerPoint));\r\n\r\n\t\t/// @notice we avoid sub. underflow, for calculating session.claimedPerPoint\r\n        /// @dev interest per point is updated in other function, so this variable \r\n        /// should be set in updateInterestPerPoint function.\r\n        /// We don't do it, as because updateInterestPerPoint will be called after updateCalculation \r\n\t\t_session.lastInterestUpdate = _sessionCap;\r\n\t}\r\n\r\n\r\n    function updateInterestPerPoint(uint256 _sessionId) internal {\r\n\t\tSession storage _session = sessions[_sessionId];\r\n        \r\n        // I record that interestPerPoint is 0.1 CWS (rewardUnit/totalSp) in session.interestPerToken\r\n        // I update the session.lastInterestUpdate to now\r\n\t\tif (_session.totalSp == 0) {\r\n\t\t\t_session.interestPerPoint = 0;\r\n\t\t} else {\r\n\t\t\t_session.interestPerPoint = _session.rewardUnit.div(_session.totalSp); // 0.1\r\n\t\t}\r\n    }\r\n\r\n    ///@dev add signin rewards to session\r\n    function addSignInReward(uint256 _sessionId, bytes calldata data) external onlyOwner{  \r\n        Session storage _session = sessions[_sessionId];\r\n\r\n        require(isValidData(data), \"saloon: signin reward isvaliddata failed\");\r\n        require(block.timestamp <= (_session.startTime + _session.period), \"saloon: session end\");\r\n\r\n        (uint256 imgId, uint256 generation, uint8 quality) =\r\n            abi.decode(data, (uint256, uint256, uint8));\r\n        uint8 _tagNum;\r\n\r\n        _session.signinRewardNum += 1;\r\n        _tagNum = _session.signinRewardNum;\r\n\r\n        signinRewards[_sessionId][_tagNum] = Params(imgId, generation, quality);\r\n        received[_sessionId][msg.sender][_tagNum] = false;\r\n        \r\n        emit AddSignInReward(_sessionId, _tagNum, imgId, generation, quality);\r\n    }\r\n\r\n    //Get check-in revenue\r\n    function getSignInReward(uint256 _sessionId, uint8 _tagNum, uint8 v, bytes32 r, bytes32 s) external {\r\n        Params storage params = signinRewards[_sessionId][_tagNum];\r\n        Session storage _session = sessions[_sessionId];\r\n        \r\n        require(received[_sessionId][msg.sender][_tagNum] == false, \"saloon: this signid reward is already received\");\r\n        require(_tagNum <= _session.signinRewardNum, \"saloon: this reward do not _tagNum\");\r\n\r\n        uint256 NftId;\r\n\r\n        {\r\n            bytes32 _messageNoPrefix = keccak256(abi.encodePacked(_sessionId, _tagNum, nonce, msg.sender));\r\n            bytes32 _message = keccak256(abi.encodePacked(\"\\x19Ethereum Signed Message:\\n32\", _messageNoPrefix));\r\n            address _recover = ecrecover(_message, v, r, s);\r\n            require(_recover == verifier,  \"Verification failed\");\r\n        }\r\n        ++nonce;\r\n        if (params.quality > 0) {\r\n           NftId = nftFactory.mintQuality(msg.sender, params.generation, params.quality);//transfer reward nft.\r\n        }\r\n\r\n        received[_sessionId][msg.sender][_tagNum] = true;\r\n\r\n        emit GetSignInReward(msg.sender, _sessionId, _tagNum, NftId, params.generation, params.quality, params.imgId);\r\n    }\r\n\r\n    //check data\r\n    function isValidData(bytes memory data) public view returns (bool) {\r\n        uint256 imgId;\r\n        uint256 generation;\r\n        uint8 quality;\r\n\r\n        (imgId, generation, quality) = abi.decode(data, (uint256, uint256, uint8));\r\n\r\n        if (quality < 0 || quality > 5) {\r\n            return false;\r\n        } \r\n        \r\n        return true;\r\n    }\r\n    \r\n}\r\n",
  "sourcePath": "D:\\seascape-smartcontracts\\contracts\\game_3\\NftStaking.sol",
  "compiler": {
    "name": "solc",
    "version": "0.6.7+commit.b8d736ae.Emscripten.clang"
  },
  "schemaVersion": "3.4.4",
  "updatedAt": "2022-06-08T08:24:31.133Z",
  "devdoc": {
    "author": "Medet Ahmetson <admin@blocklords.io>",
    "methods": {
      "addSignInReward(uint256,bytes)": {
        "details": "add signin rewards to session"
      },
      "claimAll(uint256,uint256,uint8,bytes32,bytes32)": {
        "details": "Claim all crowns for staked nfts. Nfts are burned in the process. Give bonus if all slots are full."
      },
      "constructor": {
        "details": "instantinate contracts, start session"
      },
      "onERC721Received(address,address,uint256,bytes)": {
        "details": "encrypt token data"
      },
      "owner()": {
        "details": "Returns the address of the current owner."
      },
      "renounceOwnership()": {
        "details": "Leaves the contract without owner. It will not be possible to call `onlyOwner` functions anymore. Can only be called by the current owner.      * NOTE: Renouncing ownership will leave the contract without an owner, thereby removing any functionality that is only available to the owner."
      },
      "setNftFactory(address)": {
        "details": "sets an nft factory, a smartcontract that mints tokens. the nft factory should give a permission on it's own side to this contract too."
      },
      "transferOwnership(address)": {
        "details": "Transfers ownership of the contract to a new account (`newOwner`). Can only be called by the current owner."
      }
    },
    "title": "Seascape NFT staking contract."
  },
  "userdoc": {
    "methods": {
      "claimable(uint256,address,uint256)": {
        "notice": "Returns amount of CWS Tokens that _address could claim."
      },
      "deposit(uint256,bytes,uint8,bytes32,bytes32)": {
        "notice": "deposits nft to stake along with it's SP"
      },
      "stakedBalance(uint256)": {
        "notice": "Returns total amount of Staked LP Tokens"
      },
      "startSession(address,uint256,uint256,uint256,address,bool,bool)": {
        "notice": "Starts a staking session for a finite _period of time, starting from _startTime. The _totalReward of CWS tokens will be distributed in every second. _"
      }
    },
    "notice": "Nft Staking contract allows users to earn CWS token by staking NFTs. Nfts will have a Seascape point. Which is the weight of token in Seascape Network platform. The Seascape Point is calculated by Nft parameters such as generation and quality. The higher the NFT weight, the more user gets reward for NFT staking."
  }
}