{
  "contractName": "ProfitCircus",
  "abi": [
    {
      "inputs": [
        {
          "internalType": "address",
          "name": "_nftFactory",
          "type": "address"
        }
      ],
      "stateMutability": "nonpayable",
      "type": "constructor"
    },
    {
      "anonymous": false,
      "inputs": [
        {
          "indexed": true,
          "internalType": "address",
          "name": "stakingToken",
          "type": "address"
        },
        {
          "indexed": true,
          "internalType": "address",
          "name": "owner",
          "type": "address"
        },
        {
          "indexed": false,
          "internalType": "uint256",
          "name": "sessionId",
          "type": "uint256"
        },
        {
          "indexed": false,
          "internalType": "uint256",
          "name": "amount",
          "type": "uint256"
        },
        {
          "indexed": false,
          "internalType": "uint256",
          "name": "claimedTime",
          "type": "uint256"
        }
      ],
      "name": "Claimed",
      "type": "event"
    },
    {
      "anonymous": false,
      "inputs": [
        {
          "indexed": true,
          "internalType": "address",
          "name": "stakingToken",
          "type": "address"
        },
        {
          "indexed": true,
          "internalType": "address",
          "name": "owner",
          "type": "address"
        },
        {
          "indexed": false,
          "internalType": "uint256",
          "name": "sessionId",
          "type": "uint256"
        },
        {
          "indexed": false,
          "internalType": "uint256",
          "name": "amount",
          "type": "uint256"
        },
        {
          "indexed": false,
          "internalType": "uint256",
          "name": "startTime",
          "type": "uint256"
        },
        {
          "indexed": false,
          "internalType": "uint256",
          "name": "totalStaked",
          "type": "uint256"
        }
      ],
      "name": "Deposited",
      "type": "event"
    },
    {
      "anonymous": false,
      "inputs": [
        {
          "indexed": true,
          "internalType": "address",
          "name": "factoryAddress",
          "type": "address"
        }
      ],
      "name": "FactorySet",
      "type": "event"
    },
    {
      "anonymous": false,
      "inputs": [
        {
          "indexed": true,
          "internalType": "address",
          "name": "previousOwner",
          "type": "address"
        },
        {
          "indexed": true,
          "internalType": "address",
          "name": "newOwner",
          "type": "address"
        }
      ],
      "name": "OwnershipTransferred",
      "type": "event"
    },
    {
      "anonymous": false,
      "inputs": [
        {
          "indexed": true,
          "internalType": "address",
          "name": "rewardToken",
          "type": "address"
        },
        {
          "indexed": true,
          "internalType": "address",
          "name": "stakingToken",
          "type": "address"
        },
        {
          "indexed": true,
          "internalType": "uint256",
          "name": "sessionIdd",
          "type": "uint256"
        },
        {
          "indexed": false,
          "internalType": "uint256",
          "name": "reward",
          "type": "uint256"
        },
        {
          "indexed": false,
          "internalType": "uint256",
          "name": "startTime",
          "type": "uint256"
        },
        {
          "indexed": false,
          "internalType": "uint256",
          "name": "endTime",
          "type": "uint256"
        },
        {
          "indexed": false,
          "internalType": "uint256",
          "name": "generation",
          "type": "uint256"
        }
      ],
      "name": "SessionStarted",
      "type": "event"
    },
    {
      "anonymous": false,
      "inputs": [
        {
          "indexed": true,
          "internalType": "address",
          "name": "stakingToken",
          "type": "address"
        },
        {
          "indexed": true,
          "internalType": "address",
          "name": "owner",
          "type": "address"
        },
        {
          "indexed": false,
          "internalType": "uint256",
          "name": "sessionId",
          "type": "uint256"
        },
        {
          "indexed": false,
          "internalType": "uint256",
          "name": "amount",
          "type": "uint256"
        },
        {
          "indexed": false,
          "internalType": "uint256",
          "name": "startTime",
          "type": "uint256"
        },
        {
          "indexed": false,
          "internalType": "uint256",
          "name": "totalStaked",
          "type": "uint256"
        }
      ],
      "name": "Withdrawn",
      "type": "event"
    },
    {
      "inputs": [
        {
          "internalType": "uint256",
          "name": "",
          "type": "uint256"
        },
        {
          "internalType": "address",
          "name": "",
          "type": "address"
        }
      ],
      "name": "balances",
      "outputs": [
        {
          "internalType": "uint256",
          "name": "amount",
          "type": "uint256"
        },
        {
          "internalType": "uint256",
          "name": "claimed",
          "type": "uint256"
        },
        {
          "internalType": "uint256",
          "name": "claimedTime",
          "type": "uint256"
        },
        {
          "internalType": "bool",
          "name": "minted",
          "type": "bool"
        },
        {
          "internalType": "uint256",
          "name": "claimedReward",
          "type": "uint256"
        },
        {
          "internalType": "uint256",
          "name": "unpaidReward",
          "type": "uint256"
        },
        {
          "internalType": "uint256",
          "name": "stakeTime",
          "type": "uint256"
        }
      ],
      "stateMutability": "view",
      "type": "function"
    },
    {
      "inputs": [
        {
          "internalType": "uint256",
          "name": "",
          "type": "uint256"
        },
        {
          "internalType": "address",
          "name": "",
          "type": "address"
        }
      ],
      "name": "depositTimes",
      "outputs": [
        {
          "internalType": "uint256",
          "name": "",
          "type": "uint256"
        }
      ],
      "stateMutability": "view",
      "type": "function"
    },
    {
      "inputs": [
        {
          "internalType": "address",
          "name": "",
          "type": "address"
        }
      ],
      "name": "lastSessionIds",
      "outputs": [
        {
          "internalType": "uint256",
          "name": "",
          "type": "uint256"
        }
      ],
      "stateMutability": "view",
      "type": "function"
    },
    {
      "inputs": [],
      "name": "owner",
      "outputs": [
        {
          "internalType": "address",
          "name": "",
          "type": "address"
        }
      ],
      "stateMutability": "view",
      "type": "function"
    },
    {
      "inputs": [],
      "name": "renounceOwnership",
      "outputs": [],
      "stateMutability": "nonpayable",
      "type": "function"
    },
    {
      "inputs": [
        {
          "internalType": "uint256",
          "name": "",
          "type": "uint256"
        }
      ],
      "name": "sessions",
      "outputs": [
        {
          "internalType": "address",
          "name": "rewardToken",
          "type": "address"
        },
        {
          "internalType": "address",
          "name": "stakingToken",
          "type": "address"
        },
        {
          "internalType": "uint256",
          "name": "totalReward",
          "type": "uint256"
        },
        {
          "internalType": "uint256",
          "name": "period",
          "type": "uint256"
        },
        {
          "internalType": "uint256",
          "name": "startTime",
          "type": "uint256"
        },
        {
          "internalType": "uint256",
          "name": "generation",
          "type": "uint256"
        },
        {
          "internalType": "uint256",
          "name": "claimed",
          "type": "uint256"
        },
        {
          "internalType": "uint256",
          "name": "amount",
          "type": "uint256"
        },
        {
          "internalType": "uint256",
          "name": "rewardUnit",
          "type": "uint256"
        },
        {
          "internalType": "uint256",
          "name": "interestPerToken",
          "type": "uint256"
        },
        {
          "internalType": "uint256",
          "name": "claimedPerToken",
          "type": "uint256"
        },
        {
          "internalType": "uint256",
          "name": "lastInterestUpdate",
          "type": "uint256"
        },
        {
          "internalType": "uint256",
          "name": "stakeAmount",
          "type": "uint256"
        },
        {
          "internalType": "uint256",
          "name": "stakePeriod",
          "type": "uint256"
        }
      ],
      "stateMutability": "view",
      "type": "function"
    },
    {
      "inputs": [
        {
          "internalType": "address",
          "name": "newOwner",
          "type": "address"
        }
      ],
      "name": "transferOwnership",
      "outputs": [],
      "stateMutability": "nonpayable",
      "type": "function"
    },
    {
      "stateMutability": "payable",
      "type": "receive"
    },
    {
      "inputs": [
        {
          "internalType": "address",
          "name": "_rewardToken",
          "type": "address"
        },
        {
          "internalType": "address",
          "name": "_lpToken",
          "type": "address"
        },
        {
          "internalType": "uint256",
          "name": "_totalReward",
          "type": "uint256"
        },
        {
          "internalType": "uint256",
          "name": "_period",
          "type": "uint256"
        },
        {
          "internalType": "uint256",
          "name": "_startTime",
          "type": "uint256"
        },
        {
          "internalType": "uint256",
          "name": "_generation",
          "type": "uint256"
        },
        {
          "internalType": "uint256",
          "name": "_stakeAmount",
          "type": "uint256"
        },
        {
          "internalType": "uint256",
          "name": "_stakePeriod",
          "type": "uint256"
        }
      ],
      "name": "startSession",
      "outputs": [],
      "stateMutability": "nonpayable",
      "type": "function"
    },
    {
      "inputs": [
        {
          "internalType": "address",
          "name": "_address",
          "type": "address"
        }
      ],
      "name": "setNftFactory",
      "outputs": [],
      "stateMutability": "nonpayable",
      "type": "function"
    },
    {
      "inputs": [
        {
          "internalType": "uint256",
          "name": "_sessionId",
          "type": "uint256"
        },
        {
          "internalType": "address",
          "name": "_address",
          "type": "address"
        }
      ],
      "name": "payDebt",
      "outputs": [],
      "stateMutability": "nonpayable",
      "type": "function"
    },
    {
      "inputs": [
        {
          "internalType": "uint256",
          "name": "_sessionId",
          "type": "uint256"
        },
        {
          "internalType": "uint256",
          "name": "_amount",
          "type": "uint256"
        }
      ],
      "name": "deposit",
      "outputs": [],
      "stateMutability": "nonpayable",
      "type": "function"
    },
    {
      "inputs": [
        {
          "internalType": "uint256",
          "name": "_sessionId",
          "type": "uint256"
        }
      ],
      "name": "claim",
      "outputs": [
        {
          "internalType": "bool",
          "name": "",
          "type": "bool"
        }
      ],
      "stateMutability": "nonpayable",
      "type": "function"
    },
    {
      "inputs": [
        {
          "internalType": "uint256",
          "name": "_sessionId",
          "type": "uint256"
        },
        {
          "internalType": "uint256",
          "name": "_amount",
          "type": "uint256"
        }
      ],
      "name": "withdraw",
      "outputs": [],
      "stateMutability": "nonpayable",
      "type": "function"
    },
    {
      "inputs": [
        {
          "internalType": "uint256",
          "name": "_sessionId",
          "type": "uint256"
        }
      ],
      "name": "claimNft",
      "outputs": [],
      "stateMutability": "nonpayable",
      "type": "function"
    },
    {
      "inputs": [
        {
          "internalType": "uint256",
          "name": "_sessionId",
          "type": "uint256"
        },
        {
          "internalType": "address",
          "name": "_owner",
          "type": "address"
        }
      ],
      "name": "stakedBalanceOf",
      "outputs": [
        {
          "internalType": "uint256",
          "name": "",
          "type": "uint256"
        }
      ],
      "stateMutability": "view",
      "type": "function"
    },
    {
      "inputs": [
        {
          "internalType": "uint256",
          "name": "_sessionId",
          "type": "uint256"
        },
        {
          "internalType": "address",
          "name": "_owner",
          "type": "address"
        }
      ],
      "name": "earned",
      "outputs": [
        {
          "internalType": "uint256",
          "name": "",
          "type": "uint256"
        }
      ],
      "stateMutability": "view",
      "type": "function"
    },
    {
      "inputs": [
        {
          "internalType": "uint256",
          "name": "_sessionId",
          "type": "uint256"
        },
        {
          "internalType": "address",
          "name": "_owner",
          "type": "address"
        }
      ],
      "name": "claimable",
      "outputs": [
        {
          "internalType": "uint256",
          "name": "",
          "type": "uint256"
        }
      ],
      "stateMutability": "view",
      "type": "function"
    },
    {
      "inputs": [
        {
          "internalType": "uint256",
          "name": "_sessionId",
          "type": "uint256"
        }
      ],
      "name": "stakedBalance",
      "outputs": [
        {
          "internalType": "uint256",
          "name": "",
          "type": "uint256"
        }
      ],
      "stateMutability": "view",
      "type": "function"
    },
    {
      "inputs": [
        {
          "internalType": "uint256",
          "name": "_sessionId",
          "type": "uint256"
        }
      ],
      "name": "isNftClaimable",
      "outputs": [
        {
          "internalType": "bool",
          "name": "",
          "type": "bool"
        }
      ],
      "stateMutability": "view",
      "type": "function"
    }
  ],
  "bytecode": "0x60806040523480156200001157600080fd5b506040516200424438038062004244833981810160405260208110156200003757600080fd5b810190808051906020019092919050505060006200005a6200015760201b60201c565b9050806000806101000a81548173ffffffffffffffffffffffffffffffffffffffff021916908373ffffffffffffffffffffffffffffffffffffffff1602179055508073ffffffffffffffffffffffffffffffffffffffff16600073ffffffffffffffffffffffffffffffffffffffff167f8be0079c531659141344cd1fd0a4f28419497f9722a3daafe3b4186f6b6457e060405160405180910390a3506200010f60026200015f60201b620039d61760201c565b80600160006101000a81548173ffffffffffffffffffffffffffffffffffffffff021916908373ffffffffffffffffffffffffffffffffffffffff1602179055505062000175565b600033905090565b6001816000016000828254019250508190555050565b6140bf80620001856000396000f3fe6080604052600436106101185760003560e01c806383c4b7a3116100a0578063e2bbb15811610064578063e2bbb15814610710578063e39c08fc14610755578063f2508dac146107c4578063f256cad514610817578063f2fde38b146108665761011f565b806383c4b7a31461047e5780638da5cb5b14610580578063a0c7f71c146105d7578063d389838b14610646578063d9dc8f1d146106b55761011f565b8063441a3e70116100e7578063441a3e70146102a0578063541e33e0146102e55780636edcc6651461034a578063715018a6146103f85780637bd208b21461040f5761011f565b80630dac9962146101245780631f320331146101755780632ec09d3914610212578063379607f51461024d5761011f565b3661011f57005b600080fd5b34801561013057600080fd5b506101736004803603602081101561014757600080fd5b81019080803573ffffffffffffffffffffffffffffffffffffffff1690602001909291905050506108b7565b005b34801561018157600080fd5b506101ce6004803603604081101561019857600080fd5b8101908080359060200190929190803573ffffffffffffffffffffffffffffffffffffffff169060200190929190505050610a8d565b604051808881526020018781526020018681526020018515151515815260200184815260200183815260200182815260200197505050505050505060405180910390f35b34801561021e57600080fd5b5061024b6004803603602081101561023557600080fd5b8101908080359060200190929190505050610ae9565b005b34801561025957600080fd5b506102866004803603602081101561027057600080fd5b8101908080359060200190929190505050610e0c565b604051808215151515815260200191505060405180910390f35b3480156102ac57600080fd5b506102e3600480360360408110156102c357600080fd5b810190808035906020019092919080359060200190929190505050610ee7565b005b3480156102f157600080fd5b506103346004803603602081101561030857600080fd5b81019080803573ffffffffffffffffffffffffffffffffffffffff169060200190929190505050611609565b6040518082815260200191505060405180910390f35b34801561035657600080fd5b506103f6600480360361010081101561036e57600080fd5b81019080803573ffffffffffffffffffffffffffffffffffffffff169060200190929190803573ffffffffffffffffffffffffffffffffffffffff169060200190929190803590602001909291908035906020019092919080359060200190929190803590602001909291908035906020019092919080359060200190929190505050611621565b005b34801561040457600080fd5b5061040d611deb565b005b34801561041b57600080fd5b506104686004803603604081101561043257600080fd5b8101908080359060200190929190803573ffffffffffffffffffffffffffffffffffffffff169060200190929190505050611f73565b6040518082815260200191505060405180910390f35b34801561048a57600080fd5b506104b7600480360360208110156104a157600080fd5b8101908080359060200190929190505050611fd1565b604051808f73ffffffffffffffffffffffffffffffffffffffff1673ffffffffffffffffffffffffffffffffffffffff1681526020018e73ffffffffffffffffffffffffffffffffffffffff1673ffffffffffffffffffffffffffffffffffffffff1681526020018d81526020018c81526020018b81526020018a81526020018981526020018881526020018781526020018681526020018581526020018481526020018381526020018281526020019e50505050505050505050505050505060405180910390f35b34801561058c57600080fd5b5061059561207d565b604051808273ffffffffffffffffffffffffffffffffffffffff1673ffffffffffffffffffffffffffffffffffffffff16815260200191505060405180910390f35b3480156105e357600080fd5b50610630600480360360408110156105fa57600080fd5b8101908080359060200190929190803573ffffffffffffffffffffffffffffffffffffffff1690602001909291905050506120a6565b6040518082815260200191505060405180910390f35b34801561065257600080fd5b5061069f6004803603604081101561066957600080fd5b8101908080359060200190929190803573ffffffffffffffffffffffffffffffffffffffff1690602001909291905050506120ba565b6040518082815260200191505060405180910390f35b3480156106c157600080fd5b5061070e600480360360408110156106d857600080fd5b8101908080359060200190929190803573ffffffffffffffffffffffffffffffffffffffff1690602001909291905050506120df565b005b34801561071c57600080fd5b506107536004803603604081101561073357600080fd5b81019080803590602001909291908035906020019092919050505061241b565b005b34801561076157600080fd5b506107ae6004803603604081101561077857600080fd5b8101908080359060200190929190803573ffffffffffffffffffffffffffffffffffffffff1690602001909291905050506129b5565b6040518082815260200191505060405180910390f35b3480156107d057600080fd5b506107fd600480360360208110156107e757600080fd5b8101908080359060200190929190505050612a33565b604051808215151515815260200191505060405180910390f35b34801561082357600080fd5b506108506004803603602081101561083a57600080fd5b8101908080359060200190929190505050612acb565b6040518082815260200191505060405180910390f35b34801561087257600080fd5b506108b56004803603602081101561088957600080fd5b81019080803573ffffffffffffffffffffffffffffffffffffffff169060200190929190505050612aeb565b005b6108bf612cf8565b73ffffffffffffffffffffffffffffffffffffffff166000809054906101000a900473ffffffffffffffffffffffffffffffffffffffff1673ffffffffffffffffffffffffffffffffffffffff1614610980576040517f08c379a00000000000000000000000000000000000000000000000000000000081526004018080602001828103825260208152602001807f4f776e61626c653a2063616c6c6572206973206e6f7420746865206f776e657281525060200191505060405180910390fd5b600073ffffffffffffffffffffffffffffffffffffffff168173ffffffffffffffffffffffffffffffffffffffff161415610a06576040517f08c379a0000000000000000000000000000000000000000000000000000000008152600401808060200182810382526035815260200180613c5d6035913960400191505060405180910390fd5b80600160006101000a81548173ffffffffffffffffffffffffffffffffffffffff021916908373ffffffffffffffffffffffffffffffffffffffff1602179055508073ffffffffffffffffffffffffffffffffffffffff167f1edf3afd4ac789736e00d216cd88be164ddcef26a6eedcc30cdb0cb62f3741b160405160405180910390a250565b6005602052816000526040600020602052806000526040600020600091509150508060000154908060010154908060020154908060030160009054906101000a900460ff16908060040154908060050154908060060154905087565b600060046000838152602001908152602001600020905060006005600084815260200190815260200160002060003373ffffffffffffffffffffffffffffffffffffffff1673ffffffffffffffffffffffffffffffffffffffff16815260200190815260200160002090506000610b7182600001548360010154612d0090919063ffffffff16565b11610be4576040517f08c379a000000000000000000000000000000000000000000000000000000000815260040180806020018281038252601c8152602001807f50726f666974204369726375733a204465706f7369742066697273740000000081525060200191505060405180910390fd5b610bee8282612d88565b610c43576040517f08c379a0000000000000000000000000000000000000000000000000000000008152600401808060200182810382526031815260200180613e5a6031913960400191505060405180910390fd5b6000600160009054906101000a900473ffffffffffffffffffffffffffffffffffffffff1673ffffffffffffffffffffffffffffffffffffffff166340c10f193360046000888152602001908152602001600020600501546040518363ffffffff1660e01b8152600401808373ffffffffffffffffffffffffffffffffffffffff1673ffffffffffffffffffffffffffffffffffffffff16815260200182815260200192505050602060405180830381600087803b158015610d0457600080fd5b505af1158015610d18573d6000803e3d6000fd5b505050506040513d6020811015610d2e57600080fd5b8101908080519060200190929190505050905060008111610d9a576040517f08c379a0000000000000000000000000000000000000000000000000000000008152600401808060200182810382526025815260200180613d416025913960400191505060405180910390fd5b60016005600086815260200190815260200160002060003373ffffffffffffffffffffffffffffffffffffffff1673ffffffffffffffffffffffffffffffffffffffff16815260200190815260200160002060030160006101000a81548160ff02191690831515021790555050505050565b6000806005600084815260200190815260200160002060003373ffffffffffffffffffffffffffffffffffffffff1673ffffffffffffffffffffffffffffffffffffffff16815260200190815260200160002090506000816000015411610ebe576040517f08c379a0000000000000000000000000000000000000000000000000000000008152600401808060200182810382526023815260200180613ede6023913960400191505060405180910390fd5b610ec783612e14565b50610ed183612f19565b50610edc83336132f0565b506001915050919050565b600060046000848152602001908152602001600020905060006005600085815260200190815260200160002060003373ffffffffffffffffffffffffffffffffffffffff1673ffffffffffffffffffffffffffffffffffffffff16815260200190815260200160002090508281600001541015610faf576040517f08c379a0000000000000000000000000000000000000000000000000000000008152600401808060200182810382526030815260200180613c2d6030913960400191505060405180910390fd5b610fb884612e14565b5060008260010160009054906101000a900473ffffffffffffffffffffffffffffffffffffffff169050838173ffffffffffffffffffffffffffffffffffffffff166370a08231306040518263ffffffff1660e01b8152600401808273ffffffffffffffffffffffffffffffffffffffff1673ffffffffffffffffffffffffffffffffffffffff16815260200191505060206040518083038186803b15801561106057600080fd5b505afa158015611074573d6000803e3d6000fd5b505050506040513d602081101561108a57600080fd5b810190808051906020019092919050505010156110f2576040517f08c379a0000000000000000000000000000000000000000000000000000000008152600401808060200182810382526034815260200180613bf96034913960400191505060405180910390fd5b60006110fe86336133a1565b90506000809050600073ffffffffffffffffffffffffffffffffffffffff168560000160009054906101000a900473ffffffffffffffffffffffffffffffffffffffff1673ffffffffffffffffffffffffffffffffffffffff16146112465760008560000160009054906101000a900473ffffffffffffffffffffffffffffffffffffffff1690508073ffffffffffffffffffffffffffffffffffffffff166370a08231306040518263ffffffff1660e01b8152600401808273ffffffffffffffffffffffffffffffffffffffff1673ffffffffffffffffffffffffffffffffffffffff16815260200191505060206040518083038186803b15801561120357600080fd5b505afa158015611217573d6000803e3d6000fd5b505050506040513d602081101561122d57600080fd5b810190808051906020019092919050505091505061124a565b4790505b60008211801561125957508181105b15611290576112878460050154611279838561352490919063ffffffff16565b612d0090919063ffffffff16565b84600501819055505b6112a786856000015461352490919063ffffffff16565b84600001819055506112c686866007015461352490919063ffffffff16565b85600701819055506000821115611425576112ee828660060154612d0090919063ffffffff16565b856006018190555061130d828560010154612d0090919063ffffffff16565b8460010181905550600015156113228861356e565b151514156113525761134585600301548660040154612d0090919063ffffffff16565b846002018190555061135c565b4284600201819055505b61138b8560000160009054906101000a900473ffffffffffffffffffffffffffffffffffffffff1633846135ef565b3373ffffffffffffffffffffffffffffffffffffffff168560010160009054906101000a900473ffffffffffffffffffffffffffffffffffffffff1673ffffffffffffffffffffffffffffffffffffffff167fd795915374024be1f03204e052bd584b33bb85c9128ede9c54adbe0bbdc2209589854260405180848152602001838152602001828152602001935050505060405180910390a35b8273ffffffffffffffffffffffffffffffffffffffff1663a9059cbb33886040518363ffffffff1660e01b8152600401808373ffffffffffffffffffffffffffffffffffffffff1673ffffffffffffffffffffffffffffffffffffffff16815260200182815260200192505050602060405180830381600087803b1580156114ac57600080fd5b505af11580156114c0573d6000803e3d6000fd5b505050506040513d60208110156114d657600080fd5b810190808051906020019092919050505061153c576040517f08c379a000000000000000000000000000000000000000000000000000000000815260040180806020018281038252603d815260200180613fa8603d913960400191505060405180910390fd5b61154587612e14565b5061155087336132f0565b5061155b8585613927565b3373ffffffffffffffffffffffffffffffffffffffff168560010160009054906101000a900473ffffffffffffffffffffffffffffffffffffffff1673ffffffffffffffffffffffffffffffffffffffff167ffabb9e7afa4ef595f60e1ae9041b2b311b4acb27aeaed4b11b6f2abf689af10a8989428a600701546040518085815260200184815260200183815260200182815260200194505050505060405180910390a350505050505050565b60036020528060005260406000206000915090505481565b611629612cf8565b73ffffffffffffffffffffffffffffffffffffffff166000809054906101000a900473ffffffffffffffffffffffffffffffffffffffff1673ffffffffffffffffffffffffffffffffffffffff16146116ea576040517f08c379a00000000000000000000000000000000000000000000000000000000081526004018080602001828103825260208152602001807f4f776e61626c653a2063616c6c6572206973206e6f7420746865206f776e657281525060200191505060405180910390fd5b600073ffffffffffffffffffffffffffffffffffffffff168773ffffffffffffffffffffffffffffffffffffffff161415611770576040517f08c379a0000000000000000000000000000000000000000000000000000000008152600401808060200182810382526035815260200180613f736035913960400191505060405180910390fd5b4284116117c8576040517f08c379a0000000000000000000000000000000000000000000000000000000008152600401808060200182810382526032815260200180613e8b6032913960400191505060405180910390fd5b60008511611821576040517f08c379a0000000000000000000000000000000000000000000000000000000008152600401808060200182810382526038815260200180613d946038913960400191505060405180910390fd5b6000861161187a576040517f08c379a000000000000000000000000000000000000000000000000000000000815260040180806020018281038252603e815260200180613f01603e913960400191505060405180910390fd5b60008211801561188a5750600081115b6118df576040517f08c379a0000000000000000000000000000000000000000000000000000000008152600401808060200182810382526024815260200180613cb86024913960400191505060405180910390fd5b6000600360008973ffffffffffffffffffffffffffffffffffffffff1673ffffffffffffffffffffffffffffffffffffffff168152602001908152602001600020549050600081111561199257600015156119398261356e565b151514611991576040517f08c379a000000000000000000000000000000000000000000000000000000000815260040180806020018281038252603981526020018061401e6039913960400191505060405180910390fd5b5b600073ffffffffffffffffffffffffffffffffffffffff168973ffffffffffffffffffffffffffffffffffffffff1614611ae1576000899050878173ffffffffffffffffffffffffffffffffffffffff166370a08231306040518263ffffffff1660e01b8152600401808273ffffffffffffffffffffffffffffffffffffffff1673ffffffffffffffffffffffffffffffffffffffff16815260200191505060206040518083038186803b158015611a4957600080fd5b505afa158015611a5d573d6000803e3d6000fd5b505050506040513d6020811015611a7357600080fd5b81019080805190602001909291905050501015611adb576040517f08c379a0000000000000000000000000000000000000000000000000000000008152600401808060200182810382526031815260200180613e056031913960400191505060405180910390fd5b50611b3b565b86471015611b3a576040517f08c379a0000000000000000000000000000000000000000000000000000000008152600401808060200182810382526032815260200180613cdc6032913960400191505060405180910390fd5b5b6000611b47600261397e565b90506000611b5e888a61398c90919063ffffffff16565b9050604051806101c001604052808c73ffffffffffffffffffffffffffffffffffffffff1681526020018b73ffffffffffffffffffffffffffffffffffffffff1681526020018a815260200189815260200188815260200187815260200160008152602001600081526020018281526020016000815260200160008152602001888152602001868152602001858152506004600084815260200190815260200160002060008201518160000160006101000a81548173ffffffffffffffffffffffffffffffffffffffff021916908373ffffffffffffffffffffffffffffffffffffffff16021790555060208201518160010160006101000a81548173ffffffffffffffffffffffffffffffffffffffff021916908373ffffffffffffffffffffffffffffffffffffffff16021790555060408201518160020155606082015181600301556080820151816004015560a0820151816005015560c0820151816006015560e082015181600701556101008201518160080155610120820151816009015561014082015181600a015561016082015181600b015561018082015181600c01556101a082015181600d0155905050611d1a60026139d6565b81600360008c73ffffffffffffffffffffffffffffffffffffffff1673ffffffffffffffffffffffffffffffffffffffff16815260200190815260200160002081905550818a73ffffffffffffffffffffffffffffffffffffffff168c73ffffffffffffffffffffffffffffffffffffffff167fa859e0f0105bfa8e6a84bea88ceb9b20edbded649fb195236e0fd8f57008eef58c8b8d8d018c6040518085815260200184815260200183815260200182815260200194505050505060405180910390a45050505050505050505050565b611df3612cf8565b73ffffffffffffffffffffffffffffffffffffffff166000809054906101000a900473ffffffffffffffffffffffffffffffffffffffff1673ffffffffffffffffffffffffffffffffffffffff1614611eb4576040517f08c379a00000000000000000000000000000000000000000000000000000000081526004018080602001828103825260208152602001807f4f776e61626c653a2063616c6c6572206973206e6f7420746865206f776e657281525060200191505060405180910390fd5b600073ffffffffffffffffffffffffffffffffffffffff166000809054906101000a900473ffffffffffffffffffffffffffffffffffffffff1673ffffffffffffffffffffffffffffffffffffffff167f8be0079c531659141344cd1fd0a4f28419497f9722a3daafe3b4186f6b6457e060405160405180910390a360008060006101000a81548173ffffffffffffffffffffffffffffffffffffffff021916908373ffffffffffffffffffffffffffffffffffffffff160217905550565b60006005600084815260200190815260200160002060008373ffffffffffffffffffffffffffffffffffffffff1673ffffffffffffffffffffffffffffffffffffffff16815260200190815260200160002060000154905092915050565b60046020528060005260406000206000915090508060000160009054906101000a900473ffffffffffffffffffffffffffffffffffffffff16908060010160009054906101000a900473ffffffffffffffffffffffffffffffffffffffff169080600201549080600301549080600401549080600501549080600601549080600701549080600801549080600901549080600a01549080600b01549080600c01549080600d015490508e565b60008060009054906101000a900473ffffffffffffffffffffffffffffffffffffffff16905090565b60006120b283836133a1565b905092915050565b6006602052816000526040600020602052806000526040600020600091509150505481565b6120e7612cf8565b73ffffffffffffffffffffffffffffffffffffffff166000809054906101000a900473ffffffffffffffffffffffffffffffffffffffff1673ffffffffffffffffffffffffffffffffffffffff16146121a8576040517f08c379a00000000000000000000000000000000000000000000000000000000081526004018080602001828103825260208152602001807f4f776e61626c653a2063616c6c6572206973206e6f7420746865206f776e657281525060200191505060405180910390fd5b60006005600084815260200190815260200160002060008373ffffffffffffffffffffffffffffffffffffffff1673ffffffffffffffffffffffffffffffffffffffff16815260200190815260200160002090506000816005015411156124165760006004600085815260200190815260200160002060000160009054906101000a900473ffffffffffffffffffffffffffffffffffffffff169050600073ffffffffffffffffffffffffffffffffffffffff168173ffffffffffffffffffffffffffffffffffffffff161461239d57600081905060008173ffffffffffffffffffffffffffffffffffffffff166370a08231306040518263ffffffff1660e01b8152600401808273ffffffffffffffffffffffffffffffffffffffff1673ffffffffffffffffffffffffffffffffffffffff16815260200191505060206040518083038186803b1580156122fc57600080fd5b505afa158015612310573d6000803e3d6000fd5b505050506040513d602081101561232657600080fd5b810190808051906020019092919050505090508360050154811015612396576040517f08c379a0000000000000000000000000000000000000000000000000000000008152600401808060200182810382526033815260200180613d0e6033913960400191505060405180910390fd5b50506123fb565b81600501544710156123fa576040517f08c379a0000000000000000000000000000000000000000000000000000000008152600401808060200182810382526034815260200180613f3f6034913960400191505060405180910390fd5b5b61240a818484600501546135ef565b60008260050181905550505b505050565b60008111612474576040517f08c379a0000000000000000000000000000000000000000000000000000000008152600401808060200182810382526039815260200180613fe56039913960400191505060405180910390fd5b600082116124cd576040517f08c379a00000000000000000000000000000000000000000000000000000000081526004018080602001828103825260338152602001806140576033913960400191505060405180910390fd5b6124d68261356e565b61252b576040517f08c379a0000000000000000000000000000000000000000000000000000000008152600401808060200182810382526024815260200180613e366024913960400191505060405180910390fd5b61253482612e14565b5060006004600084815260200190815260200160002060010160009054906101000a900473ffffffffffffffffffffffffffffffffffffffff169050818173ffffffffffffffffffffffffffffffffffffffff166370a08231336040518263ffffffff1660e01b8152600401808273ffffffffffffffffffffffffffffffffffffffff1673ffffffffffffffffffffffffffffffffffffffff16815260200191505060206040518083038186803b1580156125ee57600080fd5b505afa158015612602573d6000803e3d6000fd5b505050506040513d602081101561261857600080fd5b81019080805190602001909291905050501015612680576040517f08c379a000000000000000000000000000000000000000000000000000000000815260040180806020018281038252602e815260200180613d66602e913960400191505060405180910390fd5b8073ffffffffffffffffffffffffffffffffffffffff166323b872dd3330856040518463ffffffff1660e01b8152600401808473ffffffffffffffffffffffffffffffffffffffff1673ffffffffffffffffffffffffffffffffffffffff1681526020018373ffffffffffffffffffffffffffffffffffffffff1673ffffffffffffffffffffffffffffffffffffffff1681526020018281526020019350505050602060405180830381600087803b15801561273b57600080fd5b505af115801561274f573d6000803e3d6000fd5b505050506040513d602081101561276557600080fd5b81019080805190602001909291905050506127cb576040517f08c379a0000000000000000000000000000000000000000000000000000000008152600401808060200182810382526039815260200180613dcc6039913960400191505060405180910390fd5b600060046000858152602001908152602001600020905060006005600086815260200190815260200160002060003373ffffffffffffffffffffffffffffffffffffffff1673ffffffffffffffffffffffffffffffffffffffff168152602001908152602001600020905060008160000154111561284e5761284c85612f19565b505b612865848360070154612d0090919063ffffffff16565b826007018190555061287685612e14565b5061288e816000015485612d0090919063ffffffff16565b8160000181905550428160020181905550426006600087815260200190815260200160002060003373ffffffffffffffffffffffffffffffffffffffff1673ffffffffffffffffffffffffffffffffffffffff168152602001908152602001600020819055506128fe85336132f0565b506129098282613927565b3373ffffffffffffffffffffffffffffffffffffffff168260010160009054906101000a900473ffffffffffffffffffffffffffffffffffffffff1673ffffffffffffffffffffffffffffffffffffffff167ff3b2a76575670b4eff5a4ad3639d40d32f7ca987adac169e6f9b89a3ab857d2787874287600701546040518085815260200184815260200183815260200182815260200194505050505060405180910390a35050505050565b6000806129c284846133a1565b9050612a2a816005600087815260200190815260200160002060008673ffffffffffffffffffffffffffffffffffffffff1673ffffffffffffffffffffffffffffffffffffffff16815260200190815260200160002060010154612d0090919063ffffffff16565b91505092915050565b60008060046000848152602001908152602001600020905060006005600085815260200190815260200160002060003373ffffffffffffffffffffffffffffffffffffffff1673ffffffffffffffffffffffffffffffffffffffff1681526020019081526020016000209050600082600401541415612ab757600092505050612ac6565b612ac18282612d88565b925050505b919050565b600060046000838152602001908152602001600020600701549050919050565b612af3612cf8565b73ffffffffffffffffffffffffffffffffffffffff166000809054906101000a900473ffffffffffffffffffffffffffffffffffffffff1673ffffffffffffffffffffffffffffffffffffffff1614612bb4576040517f08c379a00000000000000000000000000000000000000000000000000000000081526004018080602001828103825260208152602001807f4f776e61626c653a2063616c6c6572206973206e6f7420746865206f776e657281525060200191505060405180910390fd5b600073ffffffffffffffffffffffffffffffffffffffff168173ffffffffffffffffffffffffffffffffffffffff161415612c3a576040517f08c379a0000000000000000000000000000000000000000000000000000000008152600401808060200182810382526026815260200180613c926026913960400191505060405180910390fd5b8073ffffffffffffffffffffffffffffffffffffffff166000809054906101000a900473ffffffffffffffffffffffffffffffffffffffff1673ffffffffffffffffffffffffffffffffffffffff167f8be0079c531659141344cd1fd0a4f28419497f9722a3daafe3b4186f6b6457e060405160405180910390a3806000806101000a81548173ffffffffffffffffffffffffffffffffffffffff021916908373ffffffffffffffffffffffffffffffffffffffff16021790555050565b600033905090565b600080828401905083811015612d7e576040517f08c379a000000000000000000000000000000000000000000000000000000000815260040180806020018281038252601b8152602001807f536166654d6174683a206164646974696f6e206f766572666c6f77000000000081525060200191505060405180910390fd5b8091505092915050565b60008160030160009054906101000a900460ff1615612daa5760009050612e0e565b600080905083600c0154836000015410158015612dcb575060008360060154115b15612e02576000612de984600601544261352490919063ffffffff16565b9050612dfe8183612d0090919063ffffffff16565b9150505b83600d01548110159150505b92915050565b600080600460008481526020019081526020016000209050600042905060001515612e3e8561356e565b15151415612e6457612e6182600301548360040154612d0090919063ffffffff16565b90505b612ea7612e948360090154612e8685600b01548561352490919063ffffffff16565b6139ec90919063ffffffff16565b83600a0154612d0090919063ffffffff16565b82600a0181905550600082600701541415612ecb5760008260090181905550612f09565b612f008260070154612ef2670de0b6b3a764000085600801546139ec90919063ffffffff16565b61398c90919063ffffffff16565b82600901819055505b8082600b01819055505050919050565b60008060046000848152602001908152602001600020905060006005600085815260200190815260200160002060003373ffffffffffffffffffffffffffffffffffffffff1673ffffffffffffffffffffffffffffffffffffffff16815260200190815260200160002090506000816000015411612fe2576040517f08c379a0000000000000000000000000000000000000000000000000000000008152600401808060200182810382526023815260200180613ede6023913960400191505060405180910390fd5b6000612fee85336133a1565b9050600081141561300557600093505050506132eb565b6000809050600073ffffffffffffffffffffffffffffffffffffffff168460000160009054906101000a900473ffffffffffffffffffffffffffffffffffffffff1673ffffffffffffffffffffffffffffffffffffffff161461314b5760008460000160009054906101000a900473ffffffffffffffffffffffffffffffffffffffff1690508073ffffffffffffffffffffffffffffffffffffffff166370a08231306040518263ffffffff1660e01b8152600401808273ffffffffffffffffffffffffffffffffffffffff1673ffffffffffffffffffffffffffffffffffffffff16815260200191505060206040518083038186803b15801561310857600080fd5b505afa15801561311c573d6000803e3d6000fd5b505050506040513d602081101561313257600080fd5b810190808051906020019092919050505091505061314f565b4790505b60008211801561315e57508181105b156131955761318c836005015461317e838561352490919063ffffffff16565b612d0090919063ffffffff16565b83600501819055505b600015156131a28761356e565b151514156131d2576131c584600301548560040154612d0090919063ffffffff16565b83600201819055506131dc565b4283600201819055505b6131f3828560060154612d0090919063ffffffff16565b8460060181905550613212828460010154612d0090919063ffffffff16565b83600101819055506132498460000160009054906101000a900473ffffffffffffffffffffffffffffffffffffffff1633846135ef565b3373ffffffffffffffffffffffffffffffffffffffff168460010160009054906101000a900473ffffffffffffffffffffffffffffffffffffffff1673ffffffffffffffffffffffffffffffffffffffff167fd795915374024be1f03204e052bd584b33bb85c9128ede9c54adbe0bbdc2209588854260405180848152602001838152602001828152602001935050505060405180910390a360019450505050505b919050565b60008060046000858152602001908152602001600020905060006005600086815260200190815260200160002060008573ffffffffffffffffffffffffffffffffffffffff1673ffffffffffffffffffffffffffffffffffffffff1681526020019081526020016000209050613391670de0b6b3a7640000613383836000015485600a01546139ec90919063ffffffff16565b61398c90919063ffffffff16565b8160040181905550505092915050565b60008060046000858152602001908152602001600020905060006005600086815260200190815260200160002060008573ffffffffffffffffffffffffffffffffffffffff1673ffffffffffffffffffffffffffffffffffffffff1681526020019081526020016000209050600081600001541480613424575060008260070154145b156134345760009250505061351e565b6000429050600015156134468761356e565b151514156134835761346983600301548460040154612d0090919063ffffffff16565b905080826002015410613482576000935050505061351e565b5b60006134c86134b585600901546134a787600b01548661352490919063ffffffff16565b6139ec90919063ffffffff16565b85600a0154612d0090919063ffffffff16565b905060006135138460040154613505670de0b6b3a76400006134f78689600001546139ec90919063ffffffff16565b61398c90919063ffffffff16565b61352490919063ffffffff16565b905080955050505050505b92915050565b600061356683836040518060400160405280601e81526020017f536166654d6174683a207375627472616374696f6e206f766572666c6f770000815250613a72565b905092915050565b6000806135b060046000858152602001908152602001600020600301546004600086815260200190815260200160002060040154612d0090919063ffffffff16565b905060046000848152602001908152602001600020600401544210806135d557508042115b156135e45760009150506135ea565b60019150505b919050565b600073ffffffffffffffffffffffffffffffffffffffff168373ffffffffffffffffffffffffffffffffffffffff161461387f57600083905060008173ffffffffffffffffffffffffffffffffffffffff166370a08231306040518263ffffffff1660e01b8152600401808273ffffffffffffffffffffffffffffffffffffffff1673ffffffffffffffffffffffffffffffffffffffff16815260200191505060206040518083038186803b1580156136a757600080fd5b505afa1580156136bb573d6000803e3d6000fd5b505050506040513d60208110156136d157600080fd5b81019080805190602001909291905050509050808311156137b4578173ffffffffffffffffffffffffffffffffffffffff1663a9059cbb85836040518363ffffffff1660e01b8152600401808373ffffffffffffffffffffffffffffffffffffffff1673ffffffffffffffffffffffffffffffffffffffff16815260200182815260200192505050602060405180830381600087803b15801561377357600080fd5b505af1158015613787573d6000803e3d6000fd5b505050506040513d602081101561379d57600080fd5b810190808051906020019092919050505050613878565b8173ffffffffffffffffffffffffffffffffffffffff1663a9059cbb85856040518363ffffffff1660e01b8152600401808373ffffffffffffffffffffffffffffffffffffffff1673ffffffffffffffffffffffffffffffffffffffff16815260200182815260200192505050602060405180830381600087803b15801561383b57600080fd5b505af115801561384f573d6000803e3d6000fd5b505050506040513d602081101561386557600080fd5b8101908080519060200190929190505050505b5050613922565b6000479050808211156138d8578273ffffffffffffffffffffffffffffffffffffffff166108fc829081150290604051600060405180830381858888f193505050501580156138d2573d6000803e3d6000fd5b50613920565b8273ffffffffffffffffffffffffffffffffffffffff166108fc839081150290604051600060405180830381858888f1935050505015801561391e573d6000803e3d6000fd5b505b505b505050565b8060030160009054906101000a900460ff16156139435761397a565b81600c015481600001541061396e57600081600601541415613969574281600601819055505b613979565b600081600601819055505b5b5050565b600081600001549050919050565b60006139ce83836040518060400160405280601a81526020017f536166654d6174683a206469766973696f6e206279207a65726f000000000000815250613b32565b905092915050565b6001816000016000828254019250508190555050565b6000808314156139ff5760009050613a6c565b6000828402905082848281613a1057fe5b0414613a67576040517f08c379a0000000000000000000000000000000000000000000000000000000008152600401808060200182810382526021815260200180613ebd6021913960400191505060405180910390fd5b809150505b92915050565b6000838311158290613b1f576040517f08c379a00000000000000000000000000000000000000000000000000000000081526004018080602001828103825283818151815260200191508051906020019080838360005b83811015613ae4578082015181840152602081019050613ac9565b50505050905090810190601f168015613b115780820380516001836020036101000a031916815260200191505b509250505060405180910390fd5b5060008385039050809150509392505050565b60008083118290613bde576040517f08c379a00000000000000000000000000000000000000000000000000000000081526004018080602001828103825283818151815260200191508051906020019080838360005b83811015613ba3578082015181840152602081019050613b88565b50505050905090810190601f168015613bd05780820380516001836020036101000a031916815260200191505b509250505060405180910390fd5b506000838581613bea57fe5b04905080915050939250505056fe50726f666974204369726375733a204e6f7420656e6f756768204c7020746f6b656e20696e20706c617965722062616c616e636550726f666974204369726375733a2045786365656473207468652062616c616e6365207468617420757365722068617350726f666974204369726375733a204e667420466163746f727920616464726573732063616e206e6f74206265206265207a65726f4f776e61626c653a206e6577206f776e657220697320746865207a65726f206164647265737350726f666974204369726375733a2030207374616b696e6720726571756972656d656e7450726f666974204369726375733a204e6f7420656e6f7567682062616c616e6365206f66206e61746976652072657761726450726f666974204369726375733a204e6f7420656e6f7567682072657761726420746f6b656e20746f207472616e736665722150726f666974204369726375733a206661696c656420746f206d696e74206120746f6b656e50726f666974204369726375733a204e6f7420656e6f756768204c5020746f6b656e7320746f206465706f73697450726f666974204369726375733a2053657373696f6e206475726174696f6e2073686f756c642062652067726561746572207468616e203050726f666974204369726375733a204661696c656420746f207472616e73666572204c5020746f6b656e7320696e746f20636f6e747261637450726f666974204369726375733a204e6f7420656e6f7567682062616c616e6365206f662072657761726420746f6b656e50726f666974204369726375733a2053657373696f6e206973206e6f742061637469766550726f666974204369726375733a20616c726561647920636c61696d6564206f722074696d65206e6f742070617373656450726f666974204369726375733a205365617373696f6e2073686f756c6420737461727420696e2074686520667574757265536166654d6174683a206d756c7469706c69636174696f6e206f766572666c6f7750726f666974204369726375733a204e6f206465706f7369742077617320666f756e6450726f666974204369726375733a20546f74616c20726577617264206f6620746f6b656e732073686f756c642062652067726561746572207468616e203050726f666974204369726375733a204e6f7420656e6f756768206e61746976652072657761726420746f207472616e736665722150726f666974204369726375733a205374616b696e6720746f6b656e2073686f756c64206e6f7420626520657175616c20746f203050726f666974204369726375733a204661696c656420746f207472616e7366657220746f6b656e2066726f6d20636f6e747261637420746f207573657250726f666974204369726375733a20416d6f756e7420746f206465706f7369742073686f756c642062652067726561746572207468616e203050726f666974204369726375733a2043616e2774207374617274207768656e2073657373696f6e20697320616c72656164792061637469766550726f666974204369726375733a2053657373696f6e2069642073686f756c642062652067726561746572207468616e203021a264697066735822122065f95fc1b4606eafa1dfbcf856a7ea4acd4afcc8a9967dc4ed3f7edd76b21cad64736f6c63430006070033",
  "immutableReferences": {},
  "source": "pragma solidity 0.6.7;\r\n\r\nimport \"./../openzeppelin/contracts/token/ERC20/IERC20.sol\";\r\nimport \"./../openzeppelin/contracts/token/ERC20/SafeERC20.sol\";\r\nimport \"./../openzeppelin/contracts/access/Ownable.sol\";\r\nimport \"./../openzeppelin/contracts/math/SafeMath.sol\";\r\nimport \"./../openzeppelin/contracts/utils/Counters.sol\";\r\nimport \"./../seascape_nft/NftFactory.sol\";\r\n\r\n/// @title A Liquidity pool mining\r\n/// @author Medet Ahmetson <admin@blocklords.io>\r\n/// @notice Contract is attached to Seascape Nft Factory\r\ncontract ProfitCircus is Ownable {\r\n    using SafeMath for uint256;\r\n    using SafeERC20 for IERC20;\r\n    using Counters for Counters.Counter;\r\n\r\n    uint256 private constant scaler = 10**18;\r\n\t\r\n    NftFactory nftFactory;\r\n  \r\n    Counters.Counter private sessionId;\r\n\r\n    /// @notice game event struct. as event is a solidity keyword, we call them session instead.\r\n    struct Session {\r\n\t\taddress rewardToken;\t\t// The token that user is farming\r\n\t\taddress stakingToken;  \t\t// staked token, users earn reward token\r\n        uint256 totalReward;   \t\t// amount of reward tokens to airdrop\r\n\t\tuint256 period;        \t\t// session duration in seconds\r\n\t\tuint256 startTime;     \t\t// session start in unixtimestamp\r\n\t\tuint256 generation;    \t\t// Seascape Nft generation given for minted NFT in the game\r\n\t\tuint256 claimed;       \t\t// amount of already claimed reward token\r\n\t\tuint256 amount;        \t\t// total amount of deposited tokens to the session by users\r\n\t\tuint256 rewardUnit;    \t\t// reward per second = totalReward/period\r\n\t\tuint256 interestPerToken; \t// total earned interest per token since the beginning\r\n\t\t\t\t\t\t\t\t\t// of the session\r\n\t\tuint256 claimedPerToken;    // total amount of tokens earned by a one staked token,\r\n\t\t\t\t\t\t\t\t\t// since the beginning of the session\r\n\t\tuint256 lastInterestUpdate; // last time when claimedPerToken and interestPerToken\r\n\r\n\t\t// The following two parameters are used to determine the free claimable nft.\r\n\t\tuint256 stakeAmount;\t\t// Minimum amount of Tokens to Stake\r\n\t\tuint256 stakePeriod;        // Minimum period of staking\r\n\t}\r\n\r\n    /// @notice balance of lp token that each player deposited to game session\r\n    struct Balance {\r\n\t\tuint256 amount;        \t\t// amount of staked token\r\n\t\tuint256 claimed;       \t\t// amount of claimed reward token\r\n\t\tuint256 claimedTime;\r\n\t\tbool minted;           \t\t// Seascape Nft is claimed or not,\r\n\t\t\t\t\t\t\t\t\t// for every session, user can claim one nft only\r\n\t\tuint256 claimedReward;\r\n\t\tuint256 unpaidReward;       // Amount of reward token that contract should pay to user\r\n\r\n\t\t// Track staking period in order to claim a free nft.\r\n\t\tuint256 stakeTime;\t\t\t// The time since the latest deposited enough token. It starts the countdown to stake\r\n\t}\r\n\r\n    mapping(address => uint256) public lastSessionIds;\r\n    mapping(uint256 => Session) public sessions;\r\n    mapping(uint256 => mapping(address => Balance)) public balances;\r\n    mapping(uint256 => mapping(address => uint)) public depositTimes;\r\n\r\n    event SessionStarted(address indexed rewardToken, address indexed stakingToken, uint256 indexed sessionIdd, uint256 reward, uint256 startTime, uint256 endTime, uint256 generation);\r\n    event Deposited(address indexed stakingToken, address indexed owner, uint256 sessionId, uint256 amount, uint256 startTime, uint256 totalStaked);\r\n    event Claimed(address indexed stakingToken, address indexed owner, uint256 sessionId, uint256 amount, uint256 claimedTime);\r\n    event Withdrawn(address indexed stakingToken, address indexed owner, uint256 sessionId, uint256 amount, uint256 startTime, uint256 totalStaked);\r\n    event FactorySet(address indexed factoryAddress);\t\r\n\r\n    constructor(address _nftFactory) public {\r\n\t\tsessionId.increment(); \t// starts at value 1\r\n\r\n\t\tnftFactory = NftFactory(_nftFactory);\r\n    }\r\n    \r\n    //--------------------------------------------------\r\n    // Only owner\r\n    //--------------------------------------------------\r\n\r\n    /// @notice Starts a staking session for a finit _period of\r\n    /// time, starting from _startTime. The _totalReward of\r\n    /// Reward tokens will be distributed in every second. It allows to claim a\r\n    /// a _generation Seascape NFT.\r\n    function startSession(address _rewardToken, address _lpToken,  uint256 _totalReward, uint256 _period,  uint256 _startTime, uint256 _generation, uint256 _stakeAmount, uint256 _stakePeriod) external onlyOwner {\r\n\t\trequire(_lpToken != address(0), \"Profit Circus: Staking token should not be equal to 0\");\r\n\t\trequire(_startTime > block.timestamp, \"Profit Circus: Seassion should start in the future\");\r\n\t\trequire(_period > 0, \"Profit Circus: Session duration should be greater than 0\");\r\n\t\trequire(_totalReward > 0, \"Profit Circus: Total reward of tokens should be greater than 0\");\r\n\t\trequire(_stakeAmount > 0 && _stakePeriod > 0, \"Profit Circus: 0 staking requirement\");\r\n\r\n\t\t// game session for the staked token was already created, then:\r\n\t\tuint256 _lastId = lastSessionIds[_lpToken];\r\n\t\tif (_lastId > 0) {\r\n\t\t\trequire(isActive(_lastId)==false,     \"Profit Circus: Can't start when session is already active\");\r\n\t\t}\r\n\r\n\t\tif (_rewardToken != address(0)) {\r\n\t\t\tIERC20 _reward = IERC20(_rewardToken);\r\n\r\n\t\t\t// required reward balance of this contract\r\n\t\t\trequire(_reward.balanceOf(address(this)) >= _totalReward, \"Profit Circus: Not enough balance of reward token\");\r\n\t\t} else {\r\n\t\t\trequire(address(this).balance >= _totalReward, \"Profit Circus: Not enough balance of native reward\");\r\n\t\t}\r\n\r\n\t\t//--------------------------------------------------------------------\r\n\t\t// creating the session\r\n\t\t//--------------------------------------------------------------------\r\n\t\tuint256 _sessionId = sessionId.current();\r\n\t\tuint256 _rewardUnit = _totalReward.div(_period);\t\r\n\t\tsessions[_sessionId] = Session(_rewardToken, _lpToken, _totalReward, _period, _startTime, _generation, 0, 0, _rewardUnit,\r\n\t\t\t0, 0, _startTime, _stakeAmount, _stakePeriod);\r\n\r\n\t\t//--------------------------------------------------------------------\r\n        // updating rest of the session related data\r\n\t\t//--------------------------------------------------------------------\r\n\t\tsessionId.increment();\r\n\t\tlastSessionIds[_lpToken] = _sessionId;\r\n\r\n\t\temit SessionStarted(_rewardToken, _lpToken, _sessionId, _totalReward, _startTime, _startTime + _period, _generation);\r\n    }\r\n     \r\n    /// @dev sets an nft factory, a smartcontract that mints tokens.\r\n    /// the nft factory should give a permission on it's own side to this contract too.\r\n    function setNftFactory(address _address) external onlyOwner {\r\n\t\trequire(_address != address(0), \"Profit Circus: Nft Factory address can not be be zero\");\r\n\t\tnftFactory = NftFactory(_address);\r\n\r\n\t\temit FactorySet(_address);\t    \r\n    }\r\n\r\n\tfunction payDebt(uint256 _sessionId, address _address) external onlyOwner {\r\n\t\tBalance storage _balance = balances[_sessionId][_address];\r\n\t\tif (_balance.unpaidReward > 0) {\r\n\t\t\taddress _rewardToken = sessions[_sessionId].rewardToken;\r\n\t\t\t\r\n\t\t\tif (_rewardToken != address(0)) {\r\n\t\t\t\tIERC20 _reward = IERC20(_rewardToken);\r\n\r\n\t\t\t\tuint256 _contractBalance = _reward.balanceOf(address(this));\r\n\t\t\t\trequire(_contractBalance >= _balance.unpaidReward, \"Profit Circus: Not enough reward token to transfer!\");\r\n\t\t\t} else {\r\n\t\t\t\trequire(address(this).balance >= _balance.unpaidReward, \"Profit Circus: Not enough native reward to transfer!\");\r\n\t\t\t}\r\n\r\n\t\t\t_safeTransfer(_rewardToken, _address, _balance.unpaidReward);\r\n\t\t\t\r\n\t\t\t_balance.unpaidReward = 0;\r\n\t\t}\r\n\t}\r\n\r\n    //--------------------------------------------------\r\n    // Only game users\r\n    //--------------------------------------------------\r\n\r\n    /// @notice deposits _amount of staking token. Staking token could be any ERC20 compatible token\r\n    function deposit(uint256 _sessionId, uint256 _amount) external {\r\n\t\trequire(_amount > 0,          \"Profit Circus: Amount to deposit should be greater than 0\");\r\n\t\trequire(_sessionId > 0,       \"Profit Circus: Session id should be greater than 0!\");\r\n\t\trequire(isActive(_sessionId), \"Profit Circus: Session is not active\");\r\n\r\n\t\tupdateInterestPerToken(_sessionId);\r\n\r\n\t\tIERC20 _token = IERC20(sessions[_sessionId].stakingToken);\r\n\t\t\r\n\t\trequire(_token.balanceOf(msg.sender) >= _amount,                 \"Profit Circus: Not enough LP tokens to deposit\");\r\n\t\trequire(_token.transferFrom(msg.sender, address(this), _amount), \"Profit Circus: Failed to transfer LP tokens into contract\");\r\n\r\n\t\tSession storage _session  = sessions[_sessionId];\r\n\t\tBalance storage _balance  = balances[_sessionId][msg.sender];\r\n\r\n\t\t// claim tokens if any\r\n\t\tif (_balance.amount > 0) {\r\n\t\t\t_claim(_sessionId);\r\n\t\t}\r\n\r\n\t\t// I add amount of deposits to session.amount\r\n\t\t_session.amount = _session.amount.add(_amount); // 10\r\n\r\n\t\t// interest per token is updated. maybe need to withdraw out?\r\n\t\tupdateInterestPerToken(_sessionId);\r\n\t\t\r\n\t\t_balance.amount = _amount.add(_balance.amount);\r\n\t\t_balance.claimedTime = block.timestamp;\r\n\r\n\t\tdepositTimes[_sessionId][msg.sender]    = block.timestamp;\r\n\r\n\t\tupdateBalanceInterestPerToken(_sessionId, msg.sender);\r\n\r\n\t\tupdateTimeProgress(_session, _balance);\r\n\r\n\t\temit Deposited(_session.stakingToken, msg.sender, _sessionId, _amount, block.timestamp, _session.amount);\r\n\t}\r\n\r\n\r\n\tfunction claim(uint256 _sessionId) public returns(bool) {\r\n\t\tBalance storage _balance = balances[_sessionId][msg.sender];\r\n\r\n\t\trequire(_balance.amount > 0, \"Profit Circus: No deposit was found\");\r\n\t\t\r\n\t\tupdateInterestPerToken(_sessionId);\r\n\r\n\t\t_claim(_sessionId);\r\n\r\n\t\tupdateBalanceInterestPerToken(_sessionId, msg.sender);\r\n\r\n\t\treturn true;\r\n    }\r\n\r\n    /// @notice Withdraws _amount of LP token\r\n    /// of type _token out of Staking contract.\r\n    function withdraw(uint256 _sessionId, uint256 _amount) external {\r\n\t\tSession storage _session = sessions[_sessionId];\r\n\t\tBalance storage _balance  = balances[_sessionId][msg.sender];\r\n\r\n\t\trequire(_balance.amount >= _amount, \"Profit Circus: Exceeds the balance that user has\");\r\n\r\n\t\tupdateInterestPerToken(_sessionId);\r\n\r\n\t\tIERC20 _token = IERC20(_session.stakingToken);\r\n\t\t\t\r\n\t\trequire(_token.balanceOf(address(this)) >= _amount, \"Profit Circus: Not enough Lp token in player balance\");\r\n\t\tuint256 _interest = calculateInterest(_sessionId, msg.sender);\r\n\r\n\r\n\t\tuint256 _contractBalance = 0;\r\n\t\tif (_session.rewardToken != address(0)) {\r\n\t\t\tIERC20 _reward = IERC20(_session.rewardToken);\r\n\t\t\t_contractBalance = _reward.balanceOf(address(this));\r\n\t\t} else {\r\n\t\t\t_contractBalance = address(this).balance;\r\n\t\t}\r\n\t\tif (_interest > 0 && _contractBalance < _interest) {\r\n\t\t\t_balance.unpaidReward = _interest.sub(_contractBalance).add(_balance.unpaidReward);\r\n\t\t}\r\n\r\n\t\t_balance.amount = _balance.amount.sub(_amount);\r\n\t\t_session.amount = _session.amount.sub(_amount);\r\n\r\n\t\t/// reward claims as in claim method\r\n\t\tif (_interest > 0) {\r\n\t\t\t_session.claimed     = _session.claimed.add(_interest);\t\r\n\t\t\t_balance.claimed     = _balance.claimed.add(_interest);\r\n\t\t\tif (isActive(_sessionId) == false) {\r\n\t\t\t\t_balance.claimedTime = _session.startTime.add(_session.period);\r\n\t\t\t} else {\r\n\t\t\t\t_balance.claimedTime = block.timestamp;\r\n\t\t\t}\r\n\r\n\t\t\t_safeTransfer(_session.rewardToken, msg.sender, _interest);\r\n\t\t\temit Claimed(_session.stakingToken, msg.sender, _sessionId, _interest, block.timestamp);\t\r\n\t\t}\r\n\t\trequire(_token.transfer(msg.sender, _amount), \"Profit Circus: Failed to transfer token from contract to user\");\r\n\r\n\t\t// change the session.interestPerToken\r\n\t\tupdateInterestPerToken(_sessionId);\r\n\t\tupdateBalanceInterestPerToken(_sessionId, msg.sender);\r\n \t\t\r\n\t\tupdateTimeProgress(_session, _balance);\r\n\r\n\t\temit Withdrawn(_session.stakingToken, msg.sender, _sessionId, _amount, block.timestamp, _session.amount);\r\n    }\r\n\r\n    /// @notice Mints an NFT for staker. One NFT per session, per token. and should be a deposit\r\n    function claimNft(uint256 _sessionId) external {\r\n\t\t// it also indicates that session exists\r\n\t\tSession storage _session = sessions[_sessionId];\r\n\t\tBalance storage _balance = balances[_sessionId][msg.sender];\r\n\t\trequire(_balance.claimed.add(_balance.amount) > 0, \"Profit Circus: Deposit first\");\r\n\t\trequire(isMintable(_session, _balance), \"Profit Circus: already claimed or time not passed\");\r\n\r\n\t\tuint256 _tokenId = nftFactory.mint(msg.sender, sessions[_sessionId].generation);\r\n\t\trequire(_tokenId > 0,\"Profit Circus: failed to mint a token\");\r\n\t\t\r\n\t\tbalances[_sessionId][msg.sender].minted = true;\r\n    }\r\n\r\n    //--------------------------------------------------\r\n    // Public methods\r\n    //--------------------------------------------------\r\n\r\n    /// @notice Returns amount of Token staked by _owner\r\n    function stakedBalanceOf(uint256 _sessionId, address _owner) external view returns(uint256) {\r\n\t\treturn balances[_sessionId][_owner].amount;\r\n    }\r\n\r\n    /// @notice Returns amount of reward Tokens earned by _address\r\n    function earned(uint256 _sessionId, address _owner) external view returns(uint256) {\r\n\t\tuint256 _interest = calculateInterest(_sessionId, _owner);\r\n\t\treturn balances[_sessionId][_owner].claimed.add(_interest);\r\n    }\r\n\r\n    /// @notice Returns amount of reward Tokens that _address could claim.\r\n    function claimable(uint256 _sessionId, address _owner) external view returns(uint256) {\r\n\t\treturn calculateInterest(_sessionId, _owner);\r\n    }\r\n\r\n    /// @notice Returns total amount of Staked LP Tokens\r\n    function stakedBalance(uint256 _sessionId) external view returns(uint256) {\r\n\t\treturn sessions[_sessionId].amount;\r\n    }\r\n\r\n\tfunction isNftClaimable(uint256 _sessionId) external view returns(bool) {\r\n\t\tSession storage _session = sessions[_sessionId];\r\n\t\tBalance storage _balance = balances[_sessionId][msg.sender];\r\n\t\t\r\n\t\t// session doesn't exist.\r\n\t\tif (_session.startTime == 0) {\r\n\t\t\treturn false;\r\n\t\t}\r\n\t\treturn isMintable(_session, _balance);\r\n\t}\r\n\r\n    //---------------------------------------------------\r\n    // Internal methods\r\n    //---------------------------------------------------\r\n\r\n\tfunction updateTimeProgress(Session storage _session, Balance storage _balance) internal {\r\n\t\tif (_balance.minted) {\r\n\t\t\treturn;\r\n\t\t}\r\n\r\n\t\t// If after withdraw or deposit remained more than minimum required tokens\r\n\t\t// progress the timer.\r\n\t\t// otherwise reset it.\r\n        if (_balance.amount >= _session.stakeAmount) {\r\n\t\t\tif (_balance.stakeTime == 0) {\r\n\t\t\t\t_balance.stakeTime = now;\r\n\t\t\t}\r\n        } else {\r\n\t\t\t_balance.stakeTime = 0;\r\n\t\t}\r\n    }\r\n\r\n\r\n    /// @dev check whether the session is active or not\r\n    function isActive(uint256 _sessionId) internal view returns(bool) {\r\n\t\tuint256 _endTime = sessions[_sessionId].startTime.add(sessions[_sessionId].period);\r\n\r\n\t\t// _endTime will be 0 if session never started.\r\n\t\tif (now < sessions[_sessionId].startTime || now > _endTime) {\r\n\t    \treturn false;\r\n\t\t}\r\n\r\n\t\treturn true;\r\n    }\r\n\r\n\t/// @dev check whether the time progress passed or not\r\n\tfunction isMintable(Session storage _session, Balance storage _balance) internal view returns(bool) {\r\n\t\tif (_balance.minted) {\r\n\t\t\treturn false;\r\n\t\t}\r\n\r\n\t\tuint256 time = 0;\r\n\r\n        if (_balance.amount >= _session.stakeAmount && _balance.stakeTime > 0) {\r\n            uint256 duration = now.sub(_balance.stakeTime);\r\n            time = time.add(duration);\r\n        }\r\n\r\n        return time >= _session.stakePeriod;\r\n\t}\r\n\r\n    function calculateInterest(uint256 _sessionId, address _owner) internal view returns(uint256) {\t    \r\n\t\tSession storage _session = sessions[_sessionId];\r\n\t\tBalance storage _balance = balances[_sessionId][_owner];\r\n\r\n\t\t// How much of total deposit is belong to player as a floating number\r\n\t\tif (_balance.amount == 0 || _session.amount == 0) {\r\n\t\t\treturn 0;\r\n\t\t}\r\n\r\n\t\tuint256 _sessionCap = block.timestamp;\r\n\t\tif (isActive(_sessionId) == false) {\r\n\t\t\t_sessionCap = _session.startTime.add(_session.period);\r\n\r\n\t\t\t// claimed after session expire, means no any claimables\r\n\t\t\tif (_balance.claimedTime >= _sessionCap) {\r\n\t\t\t\treturn 0;\r\n\t\t\t}\r\n\t\t}\r\n\r\n\t\tuint256 claimedPerToken = _session.claimedPerToken.add(\r\n\t\t\t_sessionCap.sub(_session.lastInterestUpdate).mul(_session.interestPerToken));\r\n\t\t\r\n\t\t// (balance * total claimable) - user deposit earned amount per token - balance.claimedTime\r\n    \tuint256 _interest = _balance.amount.mul(claimedPerToken).div(scaler).sub(_balance.claimedReward);\r\n\r\n\t\treturn _interest;\r\n    }\r\n\r\n\t\r\n\t/// @dev updateInterestPerToken set's up the amount of tokens earned since the beginning\r\n\t/// of the session to 1 token. It also updates the portion of it for the user.\r\n\t/// @param _sessionId is a session id\r\n\tfunction updateInterestPerToken(uint256 _sessionId) internal returns(bool) {\r\n\t\tSession storage _session = sessions[_sessionId];\r\n\r\n\t\tuint256 _sessionCap = block.timestamp;\r\n\t\tif (isActive(_sessionId) == false) {\r\n\t\t\t_sessionCap = _session.startTime.add(_session.period);\r\n\t\t}\r\n\r\n        // I calculate previous claimed rewards\r\n        // (session.claimedPerToken += (now - session.lastInterestUpdate) * session.interestPerToken)\r\n\t\t_session.claimedPerToken = _session.claimedPerToken.add(\r\n\t\t\t_sessionCap.sub(_session.lastInterestUpdate).mul(_session.interestPerToken));\r\n\r\n        // I record that interestPerToken is 0.1 Reward Token (rewardUnit/amount) in session.interestPerToken\r\n        // I update the session.lastInterestUpdate to now\r\n\t\tif (_session.amount == 0) {\r\n\t\t\t_session.interestPerToken = 0;\r\n\t\t} else {\r\n\t\t\t_session.interestPerToken = _session.rewardUnit.mul(scaler).div(_session.amount); // 0.1\r\n\t\t}\r\n\r\n\t\t// we avoid sub. underflow, for calulating session.claimedPerToken\r\n\t\t_session.lastInterestUpdate = _sessionCap;\r\n\t}\r\n\r\n\tfunction updateBalanceInterestPerToken(uint256 _sessionId, address _owner) internal returns(bool) {\r\n\t\tSession storage _session = sessions[_sessionId];\r\n\t\tBalance storage _balance = balances[_sessionId][_owner];\r\n\r\n\t\t// also, need to attach to alex, \r\n\t\t// that previous earning (session.claimedPerToken) is 0.\r\n\t\t_balance.claimedReward = _session.claimedPerToken.mul(_balance.amount).div(scaler); // 0\r\n\t}\r\n\r\n\tfunction _claim(uint256 _sessionId) internal returns(bool) {\r\n\t\tSession storage _session = sessions[_sessionId];\r\n\t\tBalance storage _balance = balances[_sessionId][msg.sender];\r\n\r\n\t\trequire(_balance.amount > 0, \"Profit Circus: No deposit was found\");\r\n\t\t\r\n\t\tuint256 _interest = calculateInterest(_sessionId, msg.sender);\r\n\t\tif (_interest == 0) {\r\n\t\t\treturn false;\r\n\t\t}\r\n\r\n\r\n\t\tuint256 _contractBalance = 0;\r\n\r\n\t\tif (_session.rewardToken != address(0)) {\r\n\t\t\tIERC20 _rewardToken = IERC20(_session.rewardToken);\r\n\t\t\t_contractBalance = _rewardToken.balanceOf(address(this));\r\n\t\t} else {\r\n\t\t\t_contractBalance = address(this).balance;\r\n\t\t}\r\n\t\tif (_interest > 0 && _contractBalance < _interest) {\r\n\t\t\t_balance.unpaidReward = _interest.sub(_contractBalance).add(_balance.unpaidReward);\r\n\t\t}\r\n\r\n\t\t// we avoid sub. underflow, for calulating session.claimedPerToken\r\n\t\tif (isActive(_sessionId) == false) {\r\n\t\t\t_balance.claimedTime = _session.startTime.add(_session.period);\r\n\t\t} else {\r\n\t\t\t_balance.claimedTime = block.timestamp;\r\n\t\t}\r\n\t\t_session.claimed     = _session.claimed.add(_interest);\r\n\t\t_balance.claimed     = _balance.claimed.add(_interest);\r\n\t\t\r\n\t\t_safeTransfer(_session.rewardToken, msg.sender, _interest);\r\n\t\t\t\r\n\t\temit Claimed(_session.stakingToken, msg.sender, _sessionId, _interest, block.timestamp);\r\n\t\treturn true;\r\n    }\r\n\r\n\tfunction _safeTransfer(address _token, address _to, uint256 _amount) internal {\r\n\t\tif (_token != address(0)) {\r\n\t\t\tIERC20 _rewardToken = IERC20(_token);\r\n\r\n\t\t\tuint256 _balance = _rewardToken.balanceOf(address(this));\r\n        \tif (_amount > _balance) {\r\n            \t_rewardToken.transfer(_to, _balance);\r\n\t\t\t} else {\r\n\t\t\t\t_rewardToken.transfer(_to, _amount);\r\n\t\t\t}\r\n\t\t} else {\r\n\t\t\tuint256 _balance = address(this).balance;\r\n        \tif (_amount > _balance) {\r\n            \tpayable(_to).transfer(_balance);\r\n\t\t\t} else {\r\n\t\t\t\tpayable(_to).transfer(_amount);\r\n\t\t\t}\r\n\t\t}\r\n\t}\r\n\r\n\t// Accept native tokens.\r\n\treceive() external payable {\r\n        // React to receiving ether\r\n    }\r\n}",
  "sourcePath": "D:\\seascape-smartcontracts\\contracts\\game_1\\ProfitCircus.sol",
  "compiler": {
    "name": "solc",
    "version": "0.6.7+commit.b8d736ae.Emscripten.clang"
  },
  "schemaVersion": "3.4.4",
  "updatedAt": "2022-06-08T08:24:31.081Z",
  "devdoc": {
    "author": "Medet Ahmetson <admin@blocklords.io>",
    "methods": {
      "owner()": {
        "details": "Returns the address of the current owner."
      },
      "renounceOwnership()": {
        "details": "Leaves the contract without owner. It will not be possible to call `onlyOwner` functions anymore. Can only be called by the current owner.      * NOTE: Renouncing ownership will leave the contract without an owner, thereby removing any functionality that is only available to the owner."
      },
      "setNftFactory(address)": {
        "details": "sets an nft factory, a smartcontract that mints tokens. the nft factory should give a permission on it's own side to this contract too."
      },
      "transferOwnership(address)": {
        "details": "Transfers ownership of the contract to a new account (`newOwner`). Can only be called by the current owner."
      }
    },
    "title": "A Liquidity pool mining"
  },
  "userdoc": {
    "methods": {
      "claimNft(uint256)": {
        "notice": "Mints an NFT for staker. One NFT per session, per token. and should be a deposit"
      },
      "claimable(uint256,address)": {
        "notice": "Returns amount of reward Tokens that _address could claim."
      },
      "deposit(uint256,uint256)": {
        "notice": "deposits _amount of staking token. Staking token could be any ERC20 compatible token"
      },
      "earned(uint256,address)": {
        "notice": "Returns amount of reward Tokens earned by _address"
      },
      "stakedBalance(uint256)": {
        "notice": "Returns total amount of Staked LP Tokens"
      },
      "stakedBalanceOf(uint256,address)": {
        "notice": "Returns amount of Token staked by _owner"
      },
      "startSession(address,address,uint256,uint256,uint256,uint256,uint256,uint256)": {
        "notice": "Starts a staking session for a finit _period of time, starting from _startTime. The _totalReward of Reward tokens will be distributed in every second. It allows to claim a a _generation Seascape NFT."
      },
      "withdraw(uint256,uint256)": {
        "notice": "Withdraws _amount of LP token of type _token out of Staking contract."
      }
    },
    "notice": "Contract is attached to Seascape Nft Factory"
  }
}